{
  "_format": "hh-sol-artifact-1",
  "contractName": "LockerV4",
  "sourceName": "contracts/locker/LockerV4.sol",
  "abi": [
    {
      "anonymous": false,
      "inputs": [
        {
          "indexed": false,
          "internalType": "address",
          "name": "user",
          "type": "address"
        },
        {
          "indexed": true,
          "internalType": "string",
          "name": "tokenType",
          "type": "string"
        },
        {
          "indexed": true,
          "internalType": "uint256",
          "name": "tokenAddress",
          "type": "uint256"
        },
        {
          "indexed": false,
          "internalType": "uint256",
          "name": "tokenAmount",
          "type": "uint256"
        }
      ],
      "name": "TokenLocked",
      "type": "event"
    },
    {
      "inputs": [
        {
          "internalType": "string",
          "name": "_tokenType",
          "type": "string"
        },
        {
          "internalType": "address",
          "name": "_tokenAddress",
          "type": "address"
        },
        {
          "internalType": "uint256",
          "name": "_tokenId",
          "type": "uint256"
        },
        {
          "internalType": "uint256",
          "name": "_tokenAmount",
          "type": "uint256"
        },
        {
          "internalType": "uint256",
          "name": "_unlockTime",
          "type": "uint256"
        }
      ],
      "name": "createLocker",
      "outputs": [],
      "stateMutability": "payable",
      "type": "function"
    },
    {
      "inputs": [
        {
          "internalType": "uint256",
          "name": "_lockerId",
          "type": "uint256"
        }
      ],
      "name": "destroyLocker",
      "outputs": [],
      "stateMutability": "nonpayable",
      "type": "function"
    },
    {
      "inputs": [
        {
          "internalType": "uint256",
          "name": "_lockerId",
          "type": "uint256"
        }
      ],
      "name": "getLockerInfo",
      "outputs": [
        {
          "components": [
            {
              "internalType": "address payable",
              "name": "tokenOwner",
              "type": "address"
            },
            {
              "internalType": "string",
              "name": "tokenType",
              "type": "string"
            },
            {
              "internalType": "address",
              "name": "tokenAddress",
              "type": "address"
            },
            {
              "internalType": "uint256",
              "name": "tokenId",
              "type": "uint256"
            },
            {
              "internalType": "uint256",
              "name": "tokenAmount",
              "type": "uint256"
            },
            {
              "internalType": "uint256",
              "name": "lockTime",
              "type": "uint256"
            },
            {
              "internalType": "uint256",
              "name": "unlockTime",
              "type": "uint256"
            },
            {
              "internalType": "bool",
              "name": "isWithdrawn",
              "type": "bool"
            }
          ],
          "internalType": "struct LockerV4.LockerInfo",
          "name": "",
          "type": "tuple"
        }
      ],
      "stateMutability": "view",
      "type": "function"
    },
    {
      "inputs": [
        {
          "internalType": "address",
          "name": "_tokenOwner",
          "type": "address"
        }
      ],
      "name": "getLockersOfUser",
      "outputs": [
        {
          "internalType": "uint256[]",
          "name": "",
          "type": "uint256[]"
        }
      ],
      "stateMutability": "view",
      "type": "function"
    },
    {
      "inputs": [
        {
          "internalType": "address",
          "name": "",
          "type": "address"
        },
        {
          "internalType": "address",
          "name": "",
          "type": "address"
        },
        {
          "internalType": "uint256[]",
          "name": "",
          "type": "uint256[]"
        },
        {
          "internalType": "uint256[]",
          "name": "",
          "type": "uint256[]"
        },
        {
          "internalType": "bytes",
          "name": "",
          "type": "bytes"
        }
      ],
      "name": "onERC1155BatchReceived",
      "outputs": [
        {
          "internalType": "bytes4",
          "name": "",
          "type": "bytes4"
        }
      ],
      "stateMutability": "nonpayable",
      "type": "function"
    },
    {
      "inputs": [
        {
          "internalType": "address",
          "name": "",
          "type": "address"
        },
        {
          "internalType": "address",
          "name": "",
          "type": "address"
        },
        {
          "internalType": "uint256",
          "name": "",
          "type": "uint256"
        },
        {
          "internalType": "uint256",
          "name": "",
          "type": "uint256"
        },
        {
          "internalType": "bytes",
          "name": "",
          "type": "bytes"
        }
      ],
      "name": "onERC1155Received",
      "outputs": [
        {
          "internalType": "bytes4",
          "name": "",
          "type": "bytes4"
        }
      ],
      "stateMutability": "nonpayable",
      "type": "function"
    },
    {
      "inputs": [
        {
          "internalType": "bytes4",
          "name": "interfaceId",
          "type": "bytes4"
        }
      ],
      "name": "supportsInterface",
      "outputs": [
        {
          "internalType": "bool",
          "name": "",
          "type": "bool"
        }
      ],
      "stateMutability": "view",
      "type": "function"
    }
  ],
  "bytecode": "0x608060405234801561001057600080fd5b50612473806100206000396000f3fe6080604052600436106100705760003560e01c806365ebdf911161004e57806365ebdf911461010b578063bc197c8114610134578063dffbd52e14610171578063f23a6e61146101ae57610070565b806301ffc9a7146100755780633dae1720146100b2578063493819c5146100ce575b600080fd5b34801561008157600080fd5b5061009c60048036038101906100979190611770565b6101eb565b6040516100a99190611cc8565b60405180910390f35b6100cc60048036038101906100c7919061179d565b610265565b005b3480156100da57600080fd5b506100f560048036038101906100f09190611834565b610813565b6040516101029190611dde565b60405180910390f35b34801561011757600080fd5b50610132600480360381019061012d9190611834565b6109c2565b005b34801561014057600080fd5b5061015b600480360381019061015691906115dd565b611182565b6040516101689190611ce3565b60405180910390f35b34801561017d57600080fd5b50610198600480360381019061019391906115b0565b611197565b6040516101a59190611ca6565b60405180910390f35b3480156101ba57600080fd5b506101d560048036038101906101d091906116ac565b61122e565b6040516101e29190611ce3565b60405180910390f35b60007f4e2312e0000000000000000000000000000000000000000000000000000000007bffffffffffffffffffffffffffffffffffffffffffffffffffffffff1916827bffffffffffffffffffffffffffffffffffffffffffffffffffffffff1916148061025e575061025d82611243565b5b9050919050565b600082116102a8576040517f08c379a000000000000000000000000000000000000000000000000000000000815260040161029f90611d9e565b60405180910390fd5b62278d00426102b79190611f2a565b8111156102f9576040517f08c379a00000000000000000000000000000000000000000000000000000000081526004016102f090611cfe565b60405180910390fd5b600033905061033d866040518060400160405280600381526020017f65746800000000000000000000000000000000000000000000000000000000008152506112ad565b1561038957823414610384576040517f08c379a000000000000000000000000000000000000000000000000000000000815260040161037b90611d1e565b60405180910390fd5b610619565b6103c8866040518060400160405280600581526020017f65726332300000000000000000000000000000000000000000000000000000008152506112ad565b15610462578473ffffffffffffffffffffffffffffffffffffffff166323b872dd8230866040518463ffffffff1660e01b815260040161040a93929190611c17565b602060405180830381600087803b15801561042457600080fd5b505af1158015610438573d6000803e3d6000fd5b505050506040513d601f19601f8201168201806040525081019061045c9190611743565b50610618565b6104a1866040518060400160405280600681526020017f65726337323100000000000000000000000000000000000000000000000000008152506112ad565b1561051a578473ffffffffffffffffffffffffffffffffffffffff166323b872dd8230876040518463ffffffff1660e01b81526004016104e393929190611c17565b600060405180830381600087803b1580156104fd57600080fd5b505af1158015610511573d6000803e3d6000fd5b50505050610617565b610559866040518060400160405280600781526020017f65726331313535000000000000000000000000000000000000000000000000008152506112ad565b156105d4578473ffffffffffffffffffffffffffffffffffffffff1663f242432a823087876040518563ffffffff1660e01b815260040161059d9493929190611c4e565b600060405180830381600087803b1580156105b757600080fd5b505af11580156105cb573d6000803e3d6000fd5b50505050610616565b6000610615576040517f08c379a000000000000000000000000000000000000000000000000000000000815260040161060c90611d5e565b60405180910390fd5b5b5b5b5b60008081548092919061062b90612115565b9190505550600160008273ffffffffffffffffffffffffffffffffffffffff1673ffffffffffffffffffffffffffffffffffffffff16815260200190815260200160002060005490806001815401808255809150506001900390600052602060002001600090919091909150556040518061010001604052808273ffffffffffffffffffffffffffffffffffffffff1681526020018781526020018673ffffffffffffffffffffffffffffffffffffffff16815260200185815260200184815260200142815260200183815260200160001515815250600260008054815260200190815260200160002060008201518160000160006101000a81548173ffffffffffffffffffffffffffffffffffffffff021916908373ffffffffffffffffffffffffffffffffffffffff16021790555060208201518160010190805190602001906107789291906112c8565b5060408201518160020160006101000a81548173ffffffffffffffffffffffffffffffffffffffff021916908373ffffffffffffffffffffffffffffffffffffffff160217905550606082015181600301556080820151816004015560a0820151816005015560c0820151816006015560e08201518160070160006101000a81548160ff021916908315150217905550905050505050505050565b61081b61134e565b60026000838152602001908152602001600020604051806101000160405290816000820160009054906101000a900473ffffffffffffffffffffffffffffffffffffffff1673ffffffffffffffffffffffffffffffffffffffff1673ffffffffffffffffffffffffffffffffffffffff1681526020016001820180546108a0906120b2565b80601f01602080910402602001604051908101604052809291908181526020018280546108cc906120b2565b80156109195780601f106108ee57610100808354040283529160200191610919565b820191906000526020600020905b8154815290600101906020018083116108fc57829003601f168201915b505050505081526020016002820160009054906101000a900473ffffffffffffffffffffffffffffffffffffffff1673ffffffffffffffffffffffffffffffffffffffff1673ffffffffffffffffffffffffffffffffffffffff168152602001600382015481526020016004820154815260200160058201548152602001600682015481526020016007820160009054906101000a900460ff1615151515815250509050919050565b3373ffffffffffffffffffffffffffffffffffffffff166002600083815260200190815260200160002060000160009054906101000a900473ffffffffffffffffffffffffffffffffffffffff1673ffffffffffffffffffffffffffffffffffffffff1614610a66576040517f08c379a0000000000000000000000000000000000000000000000000000000008152600401610a5d90611dbe565b60405180910390fd5b4260026000838152602001908152602001600020600601541115610abf576040517f08c379a0000000000000000000000000000000000000000000000000000000008152600401610ab690611d7e565b60405180910390fd5b600015156002600083815260200190815260200160002060070160009054906101000a900460ff16151514610b29576040517f08c379a0000000000000000000000000000000000000000000000000000000008152600401610b2090611d3e565b60405180910390fd5b6000600260008381526020019081526020016000206001018054610b4c906120b2565b80601f0160208091040260200160405190810160405280929190818152602001828054610b78906120b2565b8015610bc55780601f10610b9a57610100808354040283529160200191610bc5565b820191906000526020600020905b815481529060010190602001808311610ba857829003601f168201915b5050505050905060006002600084815260200190815260200160002060000160009054906101000a900473ffffffffffffffffffffffffffffffffffffffff16905060006002600085815260200190815260200160002060020160009054906101000a900473ffffffffffffffffffffffffffffffffffffffff169050600060026000868152602001908152602001600020600301549050600060026000878152602001908152602001600020600401549050610cb7856040518060400160405280600381526020017f65746800000000000000000000000000000000000000000000000000000000008152506112ad565b15610d08578373ffffffffffffffffffffffffffffffffffffffff166108fc829081150290604051600060405180830381858888f19350505050158015610d02573d6000803e3d6000fd5b50610f50565b610d47856040518060400160405280600581526020017f65726332300000000000000000000000000000000000000000000000000000008152506112ad565b15610ddf578273ffffffffffffffffffffffffffffffffffffffff1663a9059cbb85836040518363ffffffff1660e01b8152600401610d87929190611b5f565b602060405180830381600087803b158015610da157600080fd5b505af1158015610db5573d6000803e3d6000fd5b505050506040513d601f19601f82011682018060405250810190610dd99190611743565b50610f4f565b610e1e856040518060400160405280600681526020017f65726337323100000000000000000000000000000000000000000000000000008152506112ad565b15610e97578273ffffffffffffffffffffffffffffffffffffffff166323b872dd3086856040518463ffffffff1660e01b8152600401610e6093929190611b88565b600060405180830381600087803b158015610e7a57600080fd5b505af1158015610e8e573d6000803e3d6000fd5b50505050610f4e565b610ed6856040518060400160405280600781526020017f65726331313535000000000000000000000000000000000000000000000000008152506112ad565b15610f4d578273ffffffffffffffffffffffffffffffffffffffff1663f242432a308685856040518563ffffffff1660e01b8152600401610f1a9493929190611bbf565b600060405180830381600087803b158015610f3457600080fd5b505af1158015610f48573d6000803e3d6000fd5b505050505b5b5b5b6000600160008673ffffffffffffffffffffffffffffffffffffffff1673ffffffffffffffffffffffffffffffffffffffff16815260200190815260200160002080549050905060005b818110156110e45787600160008873ffffffffffffffffffffffffffffffffffffffff1673ffffffffffffffffffffffffffffffffffffffff1681526020019081526020016000208281548110610ff457610ff36121eb565b5b906000526020600020015414156110d157600160008773ffffffffffffffffffffffffffffffffffffffff1673ffffffffffffffffffffffffffffffffffffffff1681526020019081526020016000206001836110519190611f80565b81548110611062576110616121eb565b5b9060005260206000200154600160008873ffffffffffffffffffffffffffffffffffffffff1673ffffffffffffffffffffffffffffffffffffffff16815260200190815260200160002082815481106110be576110bd6121eb565b5b90600052602060002001819055506110e4565b80806110dc90612115565b915050610f9a565b50600160008673ffffffffffffffffffffffffffffffffffffffff1673ffffffffffffffffffffffffffffffffffffffff168152602001908152602001600020805480611134576111336121bc565b5b6001900381819060005260206000200160009055905560016002600089815260200190815260200160002060070160006101000a81548160ff02191690831515021790555050505050505050565b600063bc197c8160e01b905095945050505050565b6060600160008373ffffffffffffffffffffffffffffffffffffffff1673ffffffffffffffffffffffffffffffffffffffff16815260200190815260200160002080548060200260200160405190810160405280929190818152602001828054801561122257602002820191906000526020600020905b81548152602001906001019080831161120e575b50505050509050919050565b600063f23a6e6160e01b905095945050505050565b60007f01ffc9a7000000000000000000000000000000000000000000000000000000007bffffffffffffffffffffffffffffffffffffffffffffffffffffffff1916827bffffffffffffffffffffffffffffffffffffffffffffffffffffffff1916149050919050565b60008180519060200120838051906020012014905092915050565b8280546112d4906120b2565b90600052602060002090601f0160209004810192826112f6576000855561133d565b82601f1061130f57805160ff191683800117855561133d565b8280016001018555821561133d579182015b8281111561133c578251825591602001919060010190611321565b5b50905061134a91906113c1565b5090565b604051806101000160405280600073ffffffffffffffffffffffffffffffffffffffff16815260200160608152602001600073ffffffffffffffffffffffffffffffffffffffff168152602001600081526020016000815260200160008152602001600081526020016000151581525090565b5b808211156113da5760008160009055506001016113c2565b5090565b60006113f16113ec84611e25565b611e00565b905080838252602082019050828560208602820111156114145761141361224e565b5b60005b85811015611444578161142a888261159b565b845260208401935060208301925050600181019050611417565b5050509392505050565b600061146161145c84611e51565b611e00565b90508281526020810184848401111561147d5761147c612253565b5b611488848285612070565b509392505050565b60006114a361149e84611e82565b611e00565b9050828152602081018484840111156114bf576114be612253565b5b6114ca848285612070565b509392505050565b6000813590506114e1816123e1565b92915050565b600082601f8301126114fc576114fb612249565b5b813561150c8482602086016113de565b91505092915050565b600081519050611524816123f8565b92915050565b6000813590506115398161240f565b92915050565b600082601f83011261155457611553612249565b5b813561156484826020860161144e565b91505092915050565b600082601f83011261158257611581612249565b5b8135611592848260208601611490565b91505092915050565b6000813590506115aa81612426565b92915050565b6000602082840312156115c6576115c561225d565b5b60006115d4848285016114d2565b91505092915050565b600080600080600060a086880312156115f9576115f861225d565b5b6000611607888289016114d2565b9550506020611618888289016114d2565b945050604086013567ffffffffffffffff81111561163957611638612258565b5b611645888289016114e7565b935050606086013567ffffffffffffffff81111561166657611665612258565b5b611672888289016114e7565b925050608086013567ffffffffffffffff81111561169357611692612258565b5b61169f8882890161153f565b9150509295509295909350565b600080600080600060a086880312156116c8576116c761225d565b5b60006116d6888289016114d2565b95505060206116e7888289016114d2565b94505060406116f88882890161159b565b93505060606117098882890161159b565b925050608086013567ffffffffffffffff81111561172a57611729612258565b5b6117368882890161153f565b9150509295509295909350565b6000602082840312156117595761175861225d565b5b600061176784828501611515565b91505092915050565b6000602082840312156117865761178561225d565b5b60006117948482850161152a565b91505092915050565b600080600080600060a086880312156117b9576117b861225d565b5b600086013567ffffffffffffffff8111156117d7576117d6612258565b5b6117e38882890161156d565b95505060206117f4888289016114d2565b94505060406118058882890161159b565b93505060606118168882890161159b565b92505060806118278882890161159b565b9150509295509295909350565b60006020828403121561184a5761184961225d565b5b60006118588482850161159b565b91505092915050565b600061186d8383611b41565b60208301905092915050565b6118828161203a565b82525050565b61189181611fc6565b82525050565b6118a081611fb4565b82525050565b6118af81611fb4565b82525050565b60006118c082611ec3565b6118ca8185611ee6565b93506118d583611eb3565b8060005b838110156119065781516118ed8882611861565b97506118f883611ed9565b9250506001810190506118d9565b5085935050505092915050565b61191c81611fd8565b82525050565b61192b81611fd8565b82525050565b61193a81611fe4565b82525050565b600061194b82611ece565b6119558185611f08565b935061196581856020860161207f565b61196e81612262565b840191505092915050565b6000611986602383611f19565b915061199182612273565b604082019050919050565b60006119a9600283611f19565b91506119b4826122c2565b602082019050919050565b60006119cc600283611f19565b91506119d7826122eb565b602082019050919050565b60006119ef600283611f19565b91506119fa82612314565b602082019050919050565b6000611a12600283611ef7565b9150611a1d8261233d565b602082019050919050565b6000611a35600283611f19565b9150611a4082612366565b602082019050919050565b6000611a58600283611f19565b9150611a638261238f565b602082019050919050565b6000611a7b600283611f19565b9150611a86826123b8565b602082019050919050565b600061010083016000830151611aaa6000860182611888565b5060208301518482036020860152611ac28282611940565b9150506040830151611ad76040860182611897565b506060830151611aea6060860182611b41565b506080830151611afd6080860182611b41565b5060a0830151611b1060a0860182611b41565b5060c0830151611b2360c0860182611b41565b5060e0830151611b3660e0860182611913565b508091505092915050565b611b4a81612030565b82525050565b611b5981612030565b82525050565b6000604082019050611b746000830185611879565b611b816020830184611b50565b9392505050565b6000606082019050611b9d60008301866118a6565b611baa6020830185611879565b611bb76040830184611b50565b949350505050565b600060a082019050611bd460008301876118a6565b611be16020830186611879565b611bee6040830185611b50565b611bfb6060830184611b50565b8181036080830152611c0c81611a05565b905095945050505050565b6000606082019050611c2c60008301866118a6565b611c3960208301856118a6565b611c466040830184611b50565b949350505050565b600060a082019050611c6360008301876118a6565b611c7060208301866118a6565b611c7d6040830185611b50565b611c8a6060830184611b50565b8181036080830152611c9b81611a05565b905095945050505050565b60006020820190508181036000830152611cc081846118b5565b905092915050565b6000602082019050611cdd6000830184611922565b92915050565b6000602082019050611cf86000830184611931565b92915050565b60006020820190508181036000830152611d1781611979565b9050919050565b60006020820190508181036000830152611d378161199c565b9050919050565b60006020820190508181036000830152611d57816119bf565b9050919050565b60006020820190508181036000830152611d77816119e2565b9050919050565b60006020820190508181036000830152611d9781611a28565b9050919050565b60006020820190508181036000830152611db781611a4b565b9050919050565b60006020820190508181036000830152611dd781611a6e565b9050919050565b60006020820190508181036000830152611df88184611a91565b905092915050565b6000611e0a611e1b565b9050611e1682826120e4565b919050565b6000604051905090565b600067ffffffffffffffff821115611e4057611e3f61221a565b5b602082029050602081019050919050565b600067ffffffffffffffff821115611e6c57611e6b61221a565b5b611e7582612262565b9050602081019050919050565b600067ffffffffffffffff821115611e9d57611e9c61221a565b5b611ea682612262565b9050602081019050919050565b6000819050602082019050919050565b600081519050919050565b600081519050919050565b6000602082019050919050565b600082825260208201905092915050565b600082825260208201905092915050565b600082825260208201905092915050565b600082825260208201905092915050565b6000611f3582612030565b9150611f4083612030565b9250827fffffffffffffffffffffffffffffffffffffffffffffffffffffffffffffffff03821115611f7557611f7461215e565b5b828201905092915050565b6000611f8b82612030565b9150611f9683612030565b925082821015611fa957611fa861215e565b5b828203905092915050565b6000611fbf82612010565b9050919050565b6000611fd182612010565b9050919050565b60008115159050919050565b60007fffffffff0000000000000000000000000000000000000000000000000000000082169050919050565b600073ffffffffffffffffffffffffffffffffffffffff82169050919050565b6000819050919050565b60006120458261204c565b9050919050565b60006120578261205e565b9050919050565b600061206982612010565b9050919050565b82818337600083830152505050565b60005b8381101561209d578082015181840152602081019050612082565b838111156120ac576000848401525b50505050565b600060028204905060018216806120ca57607f821691505b602082108114156120de576120dd61218d565b5b50919050565b6120ed82612262565b810181811067ffffffffffffffff8211171561210c5761210b61221a565b5b80604052505050565b600061212082612030565b91507fffffffffffffffffffffffffffffffffffffffffffffffffffffffffffffffff8214156121535761215261215e565b5b600182019050919050565b7f4e487b7100000000000000000000000000000000000000000000000000000000600052601160045260246000fd5b7f4e487b7100000000000000000000000000000000000000000000000000000000600052602260045260246000fd5b7f4e487b7100000000000000000000000000000000000000000000000000000000600052603160045260246000fd5b7f4e487b7100000000000000000000000000000000000000000000000000000000600052603260045260246000fd5b7f4e487b7100000000000000000000000000000000000000000000000000000000600052604160045260246000fd5b600080fd5b600080fd5b600080fd5b600080fd5b600080fd5b6000601f19601f8301169050919050565b7f43757272656e746c792063616e206c6f636b206f6e6c7920666f72203330206460008201527f6179730000000000000000000000000000000000000000000000000000000000602082015250565b7f3036000000000000000000000000000000000000000000000000000000000000600082015250565b7f3034000000000000000000000000000000000000000000000000000000000000600082015250565b7f3031000000000000000000000000000000000000000000000000000000000000600082015250565b7f3078000000000000000000000000000000000000000000000000000000000000600082015250565b7f3033000000000000000000000000000000000000000000000000000000000000600082015250565b7f3035000000000000000000000000000000000000000000000000000000000000600082015250565b7f3032000000000000000000000000000000000000000000000000000000000000600082015250565b6123ea81611fb4565b81146123f557600080fd5b50565b61240181611fd8565b811461240c57600080fd5b50565b61241881611fe4565b811461242357600080fd5b50565b61242f81612030565b811461243a57600080fd5b5056fea2646970667358221220b782fe2db9ea1112d4d4c89fa00db1ed116a453252ef115a233c57678be3349564736f6c63430008070033",
  "linkReferences": {},
  "deployedLinkReferences": {}
}