{
  "_format": "hh-sol-artifact-1",
  "contractName": "MultiSender",
  "sourceName": "contracts/MultiSender.sol",
  "abi": [
    {
      "inputs": [
        {
          "internalType": "address",
          "name": "_tokenAddress",
          "type": "address"
        },
        {
          "internalType": "address[]",
          "name": "_recipients",
          "type": "address[]"
        },
        {
          "internalType": "uint256[]",
          "name": "_tokenIds",
          "type": "uint256[]"
        },
        {
          "internalType": "uint256[]",
          "name": "_amounts",
          "type": "uint256[]"
        }
      ],
      "name": "transferERC1155",
      "outputs": [],
      "stateMutability": "nonpayable",
      "type": "function"
    },
    {
      "inputs": [
        {
          "internalType": "address",
          "name": "_tokenAddress",
          "type": "address"
        },
        {
          "internalType": "address[]",
          "name": "_recipients",
          "type": "address[]"
        },
        {
          "internalType": "uint256[]",
          "name": "_amounts",
          "type": "uint256[]"
        }
      ],
      "name": "transferERC20",
      "outputs": [],
      "stateMutability": "nonpayable",
      "type": "function"
    },
    {
      "inputs": [
        {
          "internalType": "address",
          "name": "_tokenAddress",
          "type": "address"
        },
        {
          "internalType": "address[]",
          "name": "_recipients",
          "type": "address[]"
        },
        {
          "internalType": "uint256[]",
          "name": "_tokenIds",
          "type": "uint256[]"
        }
      ],
      "name": "transferERC721",
      "outputs": [],
      "stateMutability": "nonpayable",
      "type": "function"
    }
  ],
  "bytecode": "0x608060405234801561001057600080fd5b50610d1f806100206000396000f3fe608060405234801561001057600080fd5b50600436106100415760003560e01c80635fbfd3ec14610046578063dd059c4114610062578063fa558b711461007e575b600080fd5b610060600480360381019061005b9190610737565b61009a565b005b61007c600480360381019061007791906106b8565b61027c565b005b610098600480360381019061009391906106b8565b6103d4565b005b81518351146100de576040517f08c379a00000000000000000000000000000000000000000000000000000000081526004016100d590610980565b60405180910390fd5b8051835114610122576040517f08c379a0000000000000000000000000000000000000000000000000000000008152600401610119906109a0565b60405180910390fd5b60005b8351811015610275578473ffffffffffffffffffffffffffffffffffffffff1663f242432a33868481518110610184577f4e487b7100000000000000000000000000000000000000000000000000000000600052603260045260246000fd5b60200260200101518685815181106101c5577f4e487b7100000000000000000000000000000000000000000000000000000000600052603260045260246000fd5b6020026020010151868681518110610206577f4e487b7100000000000000000000000000000000000000000000000000000000600052603260045260246000fd5b602002602001015160006040518663ffffffff1660e01b8152600401610230959493929190610926565b600060405180830381600087803b15801561024a57600080fd5b505af115801561025e573d6000803e3d6000fd5b50505050808061026d90610b1f565b915050610125565b5050505050565b80518251146102c0576040517f08c379a00000000000000000000000000000000000000000000000000000000081526004016102b790610980565b60405180910390fd5b60005b82518110156103ce578373ffffffffffffffffffffffffffffffffffffffff166342842e0e33858481518110610322577f4e487b7100000000000000000000000000000000000000000000000000000000600052603260045260246000fd5b6020026020010151858581518110610363577f4e487b7100000000000000000000000000000000000000000000000000000000600052603260045260246000fd5b60200260200101516040518463ffffffff1660e01b8152600401610389939291906108ef565b600060405180830381600087803b1580156103a357600080fd5b505af11580156103b7573d6000803e3d6000fd5b5050505080806103c690610b1f565b9150506102c3565b50505050565b8051825114610418576040517f08c379a000000000000000000000000000000000000000000000000000000000815260040161040f906109a0565b60405180910390fd5b60005b8251811015610547578373ffffffffffffffffffffffffffffffffffffffff166323b872dd3385848151811061047a577f4e487b7100000000000000000000000000000000000000000000000000000000600052603260045260246000fd5b60200260200101518585815181106104bb577f4e487b7100000000000000000000000000000000000000000000000000000000600052603260045260246000fd5b60200260200101516040518463ffffffff1660e01b81526004016104e1939291906108ef565b602060405180830381600087803b1580156104fb57600080fd5b505af115801561050f573d6000803e3d6000fd5b505050506040513d601f19601f8201168201806040525081019061053391906107e2565b50808061053f90610b1f565b91505061041b565b50505050565b600061056061055b846109e5565b6109c0565b9050808382526020820190508285602086028201111561057f57600080fd5b60005b858110156105af57816105958882610625565b845260208401935060208301925050600181019050610582565b5050509392505050565b60006105cc6105c784610a11565b6109c0565b905080838252602082019050828560208602820111156105eb57600080fd5b60005b8581101561061b578161060188826106a3565b8452602084019350602083019250506001810190506105ee565b5050509392505050565b60008135905061063481610ca4565b92915050565b600082601f83011261064b57600080fd5b813561065b84826020860161054d565b91505092915050565b600082601f83011261067557600080fd5b81356106858482602086016105b9565b91505092915050565b60008151905061069d81610cbb565b92915050565b6000813590506106b281610cd2565b92915050565b6000806000606084860312156106cd57600080fd5b60006106db86828701610625565b935050602084013567ffffffffffffffff8111156106f857600080fd5b6107048682870161063a565b925050604084013567ffffffffffffffff81111561072157600080fd5b61072d86828701610664565b9150509250925092565b6000806000806080858703121561074d57600080fd5b600061075b87828801610625565b945050602085013567ffffffffffffffff81111561077857600080fd5b6107848782880161063a565b935050604085013567ffffffffffffffff8111156107a157600080fd5b6107ad87828801610664565b925050606085013567ffffffffffffffff8111156107ca57600080fd5b6107d687828801610664565b91505092959194509250565b6000602082840312156107f457600080fd5b60006108028482850161068e565b91505092915050565b61081481610a74565b82525050565b6000815461082781610abc565b6108318186610a52565b9450600182166000811461084c576001811461085e57610891565b60ff1983168652602086019350610891565b61086785610a3d565b60005b838110156108895781548189015260018201915060208101905061086a565b808801955050505b50505092915050565b60006108a7603083610a63565b91506108b282610c06565b604082019050919050565b60006108ca602f83610a63565b91506108d582610c55565b604082019050919050565b6108e981610ab2565b82525050565b6000606082019050610904600083018661080b565b610911602083018561080b565b61091e60408301846108e0565b949350505050565b600060a08201905061093b600083018861080b565b610948602083018761080b565b61095560408301866108e0565b61096260608301856108e0565b8181036080830152610974818461081a565b90509695505050505050565b600060208201905081810360008301526109998161089a565b9050919050565b600060208201905081810360008301526109b9816108bd565b9050919050565b60006109ca6109db565b90506109d68282610aee565b919050565b6000604051905090565b600067ffffffffffffffff821115610a00576109ff610bc6565b5b602082029050602081019050919050565b600067ffffffffffffffff821115610a2c57610a2b610bc6565b5b602082029050602081019050919050565b60008190508160005260206000209050919050565b600082825260208201905092915050565b600082825260208201905092915050565b6000610a7f82610a92565b9050919050565b60008115159050919050565b600073ffffffffffffffffffffffffffffffffffffffff82169050919050565b6000819050919050565b60006002820490506001821680610ad457607f821691505b60208210811415610ae857610ae7610b97565b5b50919050565b610af782610bf5565b810181811067ffffffffffffffff82111715610b1657610b15610bc6565b5b80604052505050565b6000610b2a82610ab2565b91507fffffffffffffffffffffffffffffffffffffffffffffffffffffffffffffffff821415610b5d57610b5c610b68565b5b600182019050919050565b7f4e487b7100000000000000000000000000000000000000000000000000000000600052601160045260246000fd5b7f4e487b7100000000000000000000000000000000000000000000000000000000600052602260045260246000fd5b7f4e487b7100000000000000000000000000000000000000000000000000000000600052604160045260246000fd5b6000601f19601f8301169050919050565b7f6e756d626572206f6620726563697069656e747320616e6420746f6b656e496460008201527f732073686f756c642062652073616d6500000000000000000000000000000000602082015250565b7f6e756d626572206f6620726563697069656e747320616e6420616d6f756e747360008201527f2073686f756c642062652073616d650000000000000000000000000000000000602082015250565b610cad81610a74565b8114610cb857600080fd5b50565b610cc481610a86565b8114610ccf57600080fd5b50565b610cdb81610ab2565b8114610ce657600080fd5b5056fea264697066735822122037607bb1f9de262fb7a98b8f8d9057c29c839db8cf1af0c643225be3e01072cd64736f6c63430008020033",
  "linkReferences": {},
  "deployedLinkReferences": {}
}