{
  "_format": "hh-sol-artifact-1",
  "contractName": "LockerV0",
  "sourceName": "contracts/LockerV0.sol",
  "abi": [
    {
      "anonymous": false,
      "inputs": [
        {
          "indexed": false,
          "internalType": "address",
          "name": "user",
          "type": "address"
        },
        {
          "indexed": true,
          "internalType": "string",
          "name": "tokenType",
          "type": "string"
        },
        {
          "indexed": true,
          "internalType": "uint256",
          "name": "tokenAddress",
          "type": "uint256"
        },
        {
          "indexed": false,
          "internalType": "uint256",
          "name": "tokenAmount",
          "type": "uint256"
        }
      ],
      "name": "TokenLocked",
      "type": "event"
    },
    {
      "inputs": [
        {
          "internalType": "string",
          "name": "_tokenType",
          "type": "string"
        },
        {
          "internalType": "address",
          "name": "_tokenAddress",
          "type": "address"
        },
        {
          "internalType": "uint256",
          "name": "_tokenId",
          "type": "uint256"
        },
        {
          "internalType": "uint256",
          "name": "_tokenAmount",
          "type": "uint256"
        },
        {
          "internalType": "uint256",
          "name": "_unlockTime",
          "type": "uint256"
        }
      ],
      "name": "createLocker",
      "outputs": [],
      "stateMutability": "nonpayable",
      "type": "function"
    },
    {
      "inputs": [
        {
          "internalType": "uint256",
          "name": "_lockerId",
          "type": "uint256"
        }
      ],
      "name": "destroyLocker",
      "outputs": [],
      "stateMutability": "nonpayable",
      "type": "function"
    },
    {
      "inputs": [
        {
          "internalType": "uint256",
          "name": "_lockerId",
          "type": "uint256"
        }
      ],
      "name": "getLockerInfo",
      "outputs": [
        {
          "components": [
            {
              "internalType": "address",
              "name": "tokenOwner",
              "type": "address"
            },
            {
              "internalType": "string",
              "name": "tokenType",
              "type": "string"
            },
            {
              "internalType": "address",
              "name": "tokenAddress",
              "type": "address"
            },
            {
              "internalType": "uint256",
              "name": "tokenId",
              "type": "uint256"
            },
            {
              "internalType": "uint256",
              "name": "tokenAmount",
              "type": "uint256"
            },
            {
              "internalType": "uint256",
              "name": "lockTime",
              "type": "uint256"
            },
            {
              "internalType": "uint256",
              "name": "unlockTime",
              "type": "uint256"
            },
            {
              "internalType": "bool",
              "name": "isWithdrawn",
              "type": "bool"
            }
          ],
          "internalType": "struct LockerV0.LockerInfo",
          "name": "",
          "type": "tuple"
        }
      ],
      "stateMutability": "view",
      "type": "function"
    },
    {
      "inputs": [
        {
          "internalType": "address",
          "name": "_tokenOwner",
          "type": "address"
        }
      ],
      "name": "getLockersOfUser",
      "outputs": [
        {
          "internalType": "uint256[]",
          "name": "",
          "type": "uint256[]"
        }
      ],
      "stateMutability": "view",
      "type": "function"
    }
  ],
  "bytecode": "0x608060405234801561001057600080fd5b50611795806100206000396000f3fe608060405234801561001057600080fd5b506004361061004c5760003560e01c80633dae172014610051578063493819c51461006d57806365ebdf911461009d578063dffbd52e146100b9575b600080fd5b61006b60048036038101906100669190610f25565b6100e9565b005b61008760048036038101906100829190610fb4565b61057c565b60405161009491906113a8565b60405180910390f35b6100b760048036038101906100b29190610fb4565b61072b565b005b6100d360048036038101906100ce9190610ed3565b610c64565b6040516100e09190611306565b60405180910390f35b600033905061012d866040518060400160405280600581526020017f6572633230000000000000000000000000000000000000000000000000000000815250610cfb565b156101c7578473ffffffffffffffffffffffffffffffffffffffff166323b872dd8230866040518463ffffffff1660e01b815260040161016f9392919061124c565b602060405180830381600087803b15801561018957600080fd5b505af115801561019d573d6000803e3d6000fd5b505050506040513d601f19601f820116820180604052508101906101c19190610efc565b50610382565b610206866040518060400160405280600681526020017f6572633732310000000000000000000000000000000000000000000000000000815250610cfb565b1561027f578473ffffffffffffffffffffffffffffffffffffffff166323b872dd8230876040518463ffffffff1660e01b81526004016102489392919061124c565b600060405180830381600087803b15801561026257600080fd5b505af1158015610276573d6000803e3d6000fd5b50505050610381565b6102be866040518060400160405280600781526020017f6572633131353500000000000000000000000000000000000000000000000000815250610cfb565b1561033e5760608573ffffffffffffffffffffffffffffffffffffffff1663f242432a83308888866040518663ffffffff1660e01b8152600401610306959493929190611283565b600060405180830381600087803b15801561032057600080fd5b505af1158015610334573d6000803e3d6000fd5b5050505050610380565b600061037f576040517f08c379a000000000000000000000000000000000000000000000000000000000815260040161037690611388565b60405180910390fd5b5b5b5b6000808154809291906103949061158f565b9190505550600160008273ffffffffffffffffffffffffffffffffffffffff1673ffffffffffffffffffffffffffffffffffffffff16815260200190815260200160002060005490806001815401808255809150506001900390600052602060002001600090919091909150556040518061010001604052808273ffffffffffffffffffffffffffffffffffffffff1681526020018781526020018673ffffffffffffffffffffffffffffffffffffffff16815260200185815260200184815260200142815260200183815260200160001515815250600260008054815260200190815260200160002060008201518160000160006101000a81548173ffffffffffffffffffffffffffffffffffffffff021916908373ffffffffffffffffffffffffffffffffffffffff16021790555060208201518160010190805190602001906104e1929190610d16565b5060408201518160020160006101000a81548173ffffffffffffffffffffffffffffffffffffffff021916908373ffffffffffffffffffffffffffffffffffffffff160217905550606082015181600301556080820151816004015560a0820151816005015560c0820151816006015560e08201518160070160006101000a81548160ff021916908315150217905550905050505050505050565b610584610d9c565b60026000838152602001908152602001600020604051806101000160405290816000820160009054906101000a900473ffffffffffffffffffffffffffffffffffffffff1673ffffffffffffffffffffffffffffffffffffffff1673ffffffffffffffffffffffffffffffffffffffff1681526020016001820180546106099061152c565b80601f01602080910402602001604051908101604052809291908181526020018280546106359061152c565b80156106825780601f1061065757610100808354040283529160200191610682565b820191906000526020600020905b81548152906001019060200180831161066557829003601f168201915b505050505081526020016002820160009054906101000a900473ffffffffffffffffffffffffffffffffffffffff1673ffffffffffffffffffffffffffffffffffffffff1673ffffffffffffffffffffffffffffffffffffffff168152602001600382015481526020016004820154815260200160058201548152602001600682015481526020016007820160009054906101000a900460ff1615151515815250509050919050565b3373ffffffffffffffffffffffffffffffffffffffff166002600083815260200190815260200160002060000160009054906101000a900473ffffffffffffffffffffffffffffffffffffffff1673ffffffffffffffffffffffffffffffffffffffff16146107cf576040517f08c379a00000000000000000000000000000000000000000000000000000000081526004016107c690611328565b60405180910390fd5b4260026000838152602001908152602001600020600601541015610828576040517f08c379a000000000000000000000000000000000000000000000000000000000815260040161081f90611368565b60405180910390fd5b600015156002600083815260200190815260200160002060070160009054906101000a900460ff16151514610892576040517f08c379a000000000000000000000000000000000000000000000000000000000815260040161088990611348565b60405180910390fd5b60006002600083815260200190815260200160002060010180546108b59061152c565b80601f01602080910402602001604051908101604052809291908181526020018280546108e19061152c565b801561092e5780601f106109035761010080835404028352916020019161092e565b820191906000526020600020905b81548152906001019060200180831161091157829003601f168201915b5050505050905060006002600084815260200190815260200160002060000160009054906101000a900473ffffffffffffffffffffffffffffffffffffffff16905060006002600085815260200190815260200160002060020160009054906101000a900473ffffffffffffffffffffffffffffffffffffffff169050600060026000868152602001908152602001600020600301549050600060026000878152602001908152602001600020600401549050610a20856040518060400160405280600581526020017f6572633230000000000000000000000000000000000000000000000000000000815250610cfb565b15610ab8578273ffffffffffffffffffffffffffffffffffffffff1663a9059cbb85836040518363ffffffff1660e01b8152600401610a609291906112dd565b602060405180830381600087803b158015610a7a57600080fd5b505af1158015610a8e573d6000803e3d6000fd5b505050506040513d601f19601f82011682018060405250810190610ab29190610efc565b50610c2d565b610af7856040518060400160405280600681526020017f6572633732310000000000000000000000000000000000000000000000000000815250610cfb565b15610b70578273ffffffffffffffffffffffffffffffffffffffff166323b872dd3086856040518463ffffffff1660e01b8152600401610b399392919061124c565b600060405180830381600087803b158015610b5357600080fd5b505af1158015610b67573d6000803e3d6000fd5b50505050610c2c565b610baf856040518060400160405280600781526020017f6572633131353500000000000000000000000000000000000000000000000000815250610cfb565b15610c2b5760608373ffffffffffffffffffffffffffffffffffffffff1663f242432a30878686866040518663ffffffff1660e01b8152600401610bf7959493929190611283565b600060405180830381600087803b158015610c1157600080fd5b505af1158015610c25573d6000803e3d6000fd5b50505050505b5b5b60016002600088815260200190815260200160002060070160006101000a81548160ff021916908315150217905550505050505050565b6060600160008373ffffffffffffffffffffffffffffffffffffffff1673ffffffffffffffffffffffffffffffffffffffff168152602001908152602001600020805480602002602001604051908101604052809291908181526020018280548015610cef57602002820191906000526020600020905b815481526020019060010190808311610cdb575b50505050509050919050565b60008180519060200120838051906020012014905092915050565b828054610d229061152c565b90600052602060002090601f016020900481019282610d445760008555610d8b565b82601f10610d5d57805160ff1916838001178555610d8b565b82800160010185558215610d8b579182015b82811115610d8a578251825591602001919060010190610d6f565b5b509050610d989190610e0f565b5090565b604051806101000160405280600073ffffffffffffffffffffffffffffffffffffffff16815260200160608152602001600073ffffffffffffffffffffffffffffffffffffffff168152602001600081526020016000815260200160008152602001600081526020016000151581525090565b5b80821115610e28576000816000905550600101610e10565b5090565b6000610e3f610e3a846113ef565b6113ca565b905082815260208101848484011115610e5757600080fd5b610e628482856114ea565b509392505050565b600081359050610e798161171a565b92915050565b600081519050610e8e81611731565b92915050565b600082601f830112610ea557600080fd5b8135610eb5848260208601610e2c565b91505092915050565b600081359050610ecd81611748565b92915050565b600060208284031215610ee557600080fd5b6000610ef384828501610e6a565b91505092915050565b600060208284031215610f0e57600080fd5b6000610f1c84828501610e7f565b91505092915050565b600080600080600060a08688031215610f3d57600080fd5b600086013567ffffffffffffffff811115610f5757600080fd5b610f6388828901610e94565b9550506020610f7488828901610e6a565b9450506040610f8588828901610ebe565b9350506060610f9688828901610ebe565b9250506080610fa788828901610ebe565b9150509295509295909350565b600060208284031215610fc657600080fd5b6000610fd484828501610ebe565b91505092915050565b6000610fe9838361122e565b60208301905092915050565b610ffe816114a2565b82525050565b61100d816114a2565b82525050565b600061101e82611430565b611028818561145e565b935061103383611420565b8060005b8381101561106457815161104b8882610fdd565b975061105683611451565b925050600181019050611037565b5085935050505092915050565b61107a816114b4565b82525050565b600061108b8261143b565b611095818561146f565b93506110a58185602086016114f9565b6110ae81611665565b840191505092915050565b60006110c482611446565b6110ce8185611480565b93506110de8185602086016114f9565b6110e781611665565b840191505092915050565b60006110ff601b83611491565b915061110a82611676565b602082019050919050565b6000611122601a83611491565b915061112d8261169f565b602082019050919050565b6000611145601e83611491565b9150611150826116c8565b602082019050919050565b6000611168601183611491565b9150611173826116f1565b602082019050919050565b6000610100830160008301516111976000860182610ff5565b50602083015184820360208601526111af82826110b9565b91505060408301516111c46040860182610ff5565b5060608301516111d7606086018261122e565b5060808301516111ea608086018261122e565b5060a08301516111fd60a086018261122e565b5060c083015161121060c086018261122e565b5060e083015161122360e0860182611071565b508091505092915050565b611237816114e0565b82525050565b611246816114e0565b82525050565b60006060820190506112616000830186611004565b61126e6020830185611004565b61127b604083018461123d565b949350505050565b600060a0820190506112986000830188611004565b6112a56020830187611004565b6112b2604083018661123d565b6112bf606083018561123d565b81810360808301526112d18184611080565b90509695505050505050565b60006040820190506112f26000830185611004565b6112ff602083018461123d565b9392505050565b600060208201905081810360008301526113208184611013565b905092915050565b60006020820190508181036000830152611341816110f2565b9050919050565b6000602082019050818103600083015261136181611115565b9050919050565b6000602082019050818103600083015261138181611138565b9050919050565b600060208201905081810360008301526113a18161115b565b9050919050565b600060208201905081810360008301526113c2818461117e565b905092915050565b60006113d46113e5565b90506113e0828261155e565b919050565b6000604051905090565b600067ffffffffffffffff82111561140a57611409611636565b5b61141382611665565b9050602081019050919050565b6000819050602082019050919050565b600081519050919050565b600081519050919050565b600081519050919050565b6000602082019050919050565b600082825260208201905092915050565b600082825260208201905092915050565b600082825260208201905092915050565b600082825260208201905092915050565b60006114ad826114c0565b9050919050565b60008115159050919050565b600073ffffffffffffffffffffffffffffffffffffffff82169050919050565b6000819050919050565b82818337600083830152505050565b60005b838110156115175780820151818401526020810190506114fc565b83811115611526576000848401525b50505050565b6000600282049050600182168061154457607f821691505b6020821081141561155857611557611607565b5b50919050565b61156782611665565b810181811067ffffffffffffffff8211171561158657611585611636565b5b80604052505050565b600061159a826114e0565b91507fffffffffffffffffffffffffffffffffffffffffffffffffffffffffffffffff8214156115cd576115cc6115d8565b5b600182019050919050565b7f4e487b7100000000000000000000000000000000000000000000000000000000600052601160045260246000fd5b7f4e487b7100000000000000000000000000000000000000000000000000000000600052602260045260246000fd5b7f4e487b7100000000000000000000000000000000000000000000000000000000600052604160045260246000fd5b6000601f19601f8301169050919050565b7f4f6e6c79204f776e65722063616e20646573746f7279206c6f636b0000000000600082015250565b7f546f6b656e20697320616c72656164792077697468647261776e000000000000600082015250565b7f556e6c6f636b2074696d65206973207374696c6c20696e206675747572650000600082015250565b7f496e76616c696420546f6b656e54797065000000000000000000000000000000600082015250565b611723816114a2565b811461172e57600080fd5b50565b61173a816114b4565b811461174557600080fd5b50565b611751816114e0565b811461175c57600080fd5b5056fea2646970667358221220bfb72a68da79999f4eccd7f9d68bdce7c46137108f91de3fa6f8da7adfd76f4b64736f6c63430008020033",
  "linkReferences": {},
  "deployedLinkReferences": {}
}