{
  "_format": "hh-sol-artifact-1",
  "contractName": "AshtVinayak",
  "sourceName": "contracts/tokens/auto_increment/AshtVinayak_1155.sol",
  "abi": [
    {
      "inputs": [],
      "stateMutability": "nonpayable",
      "type": "constructor"
    },
    {
      "anonymous": false,
      "inputs": [
        {
          "indexed": true,
          "internalType": "address",
          "name": "account",
          "type": "address"
        },
        {
          "indexed": true,
          "internalType": "address",
          "name": "operator",
          "type": "address"
        },
        {
          "indexed": false,
          "internalType": "bool",
          "name": "approved",
          "type": "bool"
        }
      ],
      "name": "ApprovalForAll",
      "type": "event"
    },
    {
      "anonymous": false,
      "inputs": [
        {
          "indexed": true,
          "internalType": "address",
          "name": "previousOwner",
          "type": "address"
        },
        {
          "indexed": true,
          "internalType": "address",
          "name": "newOwner",
          "type": "address"
        }
      ],
      "name": "OwnershipTransferred",
      "type": "event"
    },
    {
      "anonymous": false,
      "inputs": [
        {
          "indexed": true,
          "internalType": "address",
          "name": "operator",
          "type": "address"
        },
        {
          "indexed": true,
          "internalType": "address",
          "name": "from",
          "type": "address"
        },
        {
          "indexed": true,
          "internalType": "address",
          "name": "to",
          "type": "address"
        },
        {
          "indexed": false,
          "internalType": "uint256[]",
          "name": "ids",
          "type": "uint256[]"
        },
        {
          "indexed": false,
          "internalType": "uint256[]",
          "name": "values",
          "type": "uint256[]"
        }
      ],
      "name": "TransferBatch",
      "type": "event"
    },
    {
      "anonymous": false,
      "inputs": [
        {
          "indexed": true,
          "internalType": "address",
          "name": "operator",
          "type": "address"
        },
        {
          "indexed": true,
          "internalType": "address",
          "name": "from",
          "type": "address"
        },
        {
          "indexed": true,
          "internalType": "address",
          "name": "to",
          "type": "address"
        },
        {
          "indexed": false,
          "internalType": "uint256",
          "name": "id",
          "type": "uint256"
        },
        {
          "indexed": false,
          "internalType": "uint256",
          "name": "value",
          "type": "uint256"
        }
      ],
      "name": "TransferSingle",
      "type": "event"
    },
    {
      "anonymous": false,
      "inputs": [
        {
          "indexed": false,
          "internalType": "string",
          "name": "value",
          "type": "string"
        },
        {
          "indexed": true,
          "internalType": "uint256",
          "name": "id",
          "type": "uint256"
        }
      ],
      "name": "URI",
      "type": "event"
    },
    {
      "inputs": [
        {
          "internalType": "address",
          "name": "account",
          "type": "address"
        },
        {
          "internalType": "uint256",
          "name": "id",
          "type": "uint256"
        }
      ],
      "name": "balanceOf",
      "outputs": [
        {
          "internalType": "uint256",
          "name": "",
          "type": "uint256"
        }
      ],
      "stateMutability": "view",
      "type": "function"
    },
    {
      "inputs": [
        {
          "internalType": "address[]",
          "name": "accounts",
          "type": "address[]"
        },
        {
          "internalType": "uint256[]",
          "name": "ids",
          "type": "uint256[]"
        }
      ],
      "name": "balanceOfBatch",
      "outputs": [
        {
          "internalType": "uint256[]",
          "name": "",
          "type": "uint256[]"
        }
      ],
      "stateMutability": "view",
      "type": "function"
    },
    {
      "inputs": [
        {
          "internalType": "address",
          "name": "account",
          "type": "address"
        },
        {
          "internalType": "address",
          "name": "operator",
          "type": "address"
        }
      ],
      "name": "isApprovedForAll",
      "outputs": [
        {
          "internalType": "bool",
          "name": "",
          "type": "bool"
        }
      ],
      "stateMutability": "view",
      "type": "function"
    },
    {
      "inputs": [
        {
          "internalType": "address",
          "name": "account",
          "type": "address"
        },
        {
          "internalType": "uint256",
          "name": "amount",
          "type": "uint256"
        }
      ],
      "name": "mint",
      "outputs": [],
      "stateMutability": "nonpayable",
      "type": "function"
    },
    {
      "inputs": [],
      "name": "owner",
      "outputs": [
        {
          "internalType": "address",
          "name": "",
          "type": "address"
        }
      ],
      "stateMutability": "view",
      "type": "function"
    },
    {
      "inputs": [],
      "name": "renounceOwnership",
      "outputs": [],
      "stateMutability": "nonpayable",
      "type": "function"
    },
    {
      "inputs": [
        {
          "internalType": "address",
          "name": "from",
          "type": "address"
        },
        {
          "internalType": "address",
          "name": "to",
          "type": "address"
        },
        {
          "internalType": "uint256[]",
          "name": "ids",
          "type": "uint256[]"
        },
        {
          "internalType": "uint256[]",
          "name": "amounts",
          "type": "uint256[]"
        },
        {
          "internalType": "bytes",
          "name": "data",
          "type": "bytes"
        }
      ],
      "name": "safeBatchTransferFrom",
      "outputs": [],
      "stateMutability": "nonpayable",
      "type": "function"
    },
    {
      "inputs": [
        {
          "internalType": "address",
          "name": "from",
          "type": "address"
        },
        {
          "internalType": "address",
          "name": "to",
          "type": "address"
        },
        {
          "internalType": "uint256",
          "name": "id",
          "type": "uint256"
        },
        {
          "internalType": "uint256",
          "name": "amount",
          "type": "uint256"
        },
        {
          "internalType": "bytes",
          "name": "data",
          "type": "bytes"
        }
      ],
      "name": "safeTransferFrom",
      "outputs": [],
      "stateMutability": "nonpayable",
      "type": "function"
    },
    {
      "inputs": [
        {
          "internalType": "address",
          "name": "operator",
          "type": "address"
        },
        {
          "internalType": "bool",
          "name": "approved",
          "type": "bool"
        }
      ],
      "name": "setApprovalForAll",
      "outputs": [],
      "stateMutability": "nonpayable",
      "type": "function"
    },
    {
      "inputs": [
        {
          "internalType": "string",
          "name": "newuri",
          "type": "string"
        }
      ],
      "name": "setURI",
      "outputs": [],
      "stateMutability": "nonpayable",
      "type": "function"
    },
    {
      "inputs": [
        {
          "internalType": "bytes4",
          "name": "interfaceId",
          "type": "bytes4"
        }
      ],
      "name": "supportsInterface",
      "outputs": [
        {
          "internalType": "bool",
          "name": "",
          "type": "bool"
        }
      ],
      "stateMutability": "view",
      "type": "function"
    },
    {
      "inputs": [
        {
          "internalType": "address",
          "name": "newOwner",
          "type": "address"
        }
      ],
      "name": "transferOwnership",
      "outputs": [],
      "stateMutability": "nonpayable",
      "type": "function"
    },
    {
      "inputs": [
        {
          "internalType": "uint256",
          "name": "",
          "type": "uint256"
        }
      ],
      "name": "uri",
      "outputs": [
        {
          "internalType": "string",
          "name": "",
          "type": "string"
        }
      ],
      "stateMutability": "view",
      "type": "function"
    }
  ],
  "bytecode": "0x60806040523480156200001157600080fd5b506040518060200160405280600081525062000033816200005a60201b60201c565b5062000054620000486200007660201b60201c565b6200007e60201b60201c565b62000259565b80600290805190602001906200007292919062000144565b5050565b600033905090565b6000600360009054906101000a900473ffffffffffffffffffffffffffffffffffffffff16905081600360006101000a81548173ffffffffffffffffffffffffffffffffffffffff021916908373ffffffffffffffffffffffffffffffffffffffff1602179055508173ffffffffffffffffffffffffffffffffffffffff168173ffffffffffffffffffffffffffffffffffffffff167f8be0079c531659141344cd1fd0a4f28419497f9722a3daafe3b4186f6b6457e060405160405180910390a35050565b8280546200015290620001f4565b90600052602060002090601f016020900481019282620001765760008555620001c2565b82601f106200019157805160ff1916838001178555620001c2565b82800160010185558215620001c2579182015b82811115620001c1578251825591602001919060010190620001a4565b5b509050620001d19190620001d5565b5090565b5b80821115620001f0576000816000905550600101620001d6565b5090565b600060028204905060018216806200020d57607f821691505b602082108114156200022457620002236200022a565b5b50919050565b7f4e487b7100000000000000000000000000000000000000000000000000000000600052602260045260246000fd5b612f7c80620002696000396000f3fe608060405234801561001057600080fd5b50600436106100ce5760003560e01c80634e1273f41161008c578063a22cb46511610066578063a22cb4651461020f578063e985e9c51461022b578063f242432a1461025b578063f2fde38b14610277576100ce565b80634e1273f4146101b7578063715018a6146101e75780638da5cb5b146101f1576100ce565b8062fdd58e146100d357806301ffc9a71461010357806302fe5305146101335780630e89341c1461014f5780632eb2c2d61461017f57806340c10f191461019b575b600080fd5b6100ed60048036038101906100e89190611e90565b610293565b6040516100fa9190612616565b60405180910390f35b61011d60048036038101906101189190611f48565b61035c565b60405161012a9190612439565b60405180910390f35b61014d60048036038101906101489190611fa2565b61043e565b005b61016960048036038101906101649190611feb565b6104c6565b6040516101769190612454565b60405180910390f35b61019960048036038101906101949190611cea565b61055a565b005b6101b560048036038101906101b09190611e90565b6105fb565b005b6101d160048036038101906101cc9190611ed0565b6106d5565b6040516101de91906123e0565b60405180910390f35b6101ef6107ee565b005b6101f9610876565b6040516102069190612303565b60405180910390f35b61022960048036038101906102249190611e50565b6108a0565b005b61024560048036038101906102409190611caa565b6108b6565b6040516102529190612439565b60405180910390f35b61027560048036038101906102709190611db9565b61094a565b005b610291600480360381019061028c9190611c7d565b6109eb565b005b60008073ffffffffffffffffffffffffffffffffffffffff168373ffffffffffffffffffffffffffffffffffffffff161415610304576040517f08c379a00000000000000000000000000000000000000000000000000000000081526004016102fb906124b6565b60405180910390fd5b60008083815260200190815260200160002060008473ffffffffffffffffffffffffffffffffffffffff1673ffffffffffffffffffffffffffffffffffffffff16815260200190815260200160002054905092915050565b60007fd9b67a26000000000000000000000000000000000000000000000000000000007bffffffffffffffffffffffffffffffffffffffffffffffffffffffff1916827bffffffffffffffffffffffffffffffffffffffffffffffffffffffff1916148061042757507f0e89341c000000000000000000000000000000000000000000000000000000007bffffffffffffffffffffffffffffffffffffffffffffffffffffffff1916827bffffffffffffffffffffffffffffffffffffffffffffffffffffffff1916145b80610437575061043682610ae3565b5b9050919050565b610446610b4d565b73ffffffffffffffffffffffffffffffffffffffff16610464610876565b73ffffffffffffffffffffffffffffffffffffffff16146104ba576040517f08c379a00000000000000000000000000000000000000000000000000000000081526004016104b190612576565b60405180910390fd5b6104c381610b55565b50565b6060600280546104d5906128b6565b80601f0160208091040260200160405190810160405280929190818152602001828054610501906128b6565b801561054e5780601f106105235761010080835404028352916020019161054e565b820191906000526020600020905b81548152906001019060200180831161053157829003601f168201915b50505050509050919050565b610562610b4d565b73ffffffffffffffffffffffffffffffffffffffff168573ffffffffffffffffffffffffffffffffffffffff1614806105a857506105a7856105a2610b4d565b6108b6565b5b6105e7576040517f08c379a00000000000000000000000000000000000000000000000000000000081526004016105de90612536565b60405180910390fd5b6105f48585858585610b6f565b5050505050565b610603610b4d565b73ffffffffffffffffffffffffffffffffffffffff16610621610876565b73ffffffffffffffffffffffffffffffffffffffff1614610677576040517f08c379a000000000000000000000000000000000000000000000000000000000815260040161066e90612576565b60405180910390fd5b60006106836004610e83565b905061068f6004610e91565b6106d08382846040518060400160405280600281526020017f3078000000000000000000000000000000000000000000000000000000000000815250610ea7565b505050565b6060815183511461071b576040517f08c379a0000000000000000000000000000000000000000000000000000000008152600401610712906125b6565b60405180910390fd5b6000835167ffffffffffffffff811115610738576107376129ef565b5b6040519080825280602002602001820160405280156107665781602001602082028036833780820191505090505b50905060005b84518110156107e3576107b385828151811061078b5761078a6129c0565b5b60200260200101518583815181106107a6576107a56129c0565b5b6020026020010151610293565b8282815181106107c6576107c56129c0565b5b602002602001018181525050806107dc90612919565b905061076c565b508091505092915050565b6107f6610b4d565b73ffffffffffffffffffffffffffffffffffffffff16610814610876565b73ffffffffffffffffffffffffffffffffffffffff161461086a576040517f08c379a000000000000000000000000000000000000000000000000000000000815260040161086190612576565b60405180910390fd5b610874600061103d565b565b6000600360009054906101000a900473ffffffffffffffffffffffffffffffffffffffff16905090565b6108b26108ab610b4d565b8383611103565b5050565b6000600160008473ffffffffffffffffffffffffffffffffffffffff1673ffffffffffffffffffffffffffffffffffffffff16815260200190815260200160002060008373ffffffffffffffffffffffffffffffffffffffff1673ffffffffffffffffffffffffffffffffffffffff16815260200190815260200160002060009054906101000a900460ff16905092915050565b610952610b4d565b73ffffffffffffffffffffffffffffffffffffffff168573ffffffffffffffffffffffffffffffffffffffff161480610998575061099785610992610b4d565b6108b6565b5b6109d7576040517f08c379a00000000000000000000000000000000000000000000000000000000081526004016109ce906124f6565b60405180910390fd5b6109e48585858585611270565b5050505050565b6109f3610b4d565b73ffffffffffffffffffffffffffffffffffffffff16610a11610876565b73ffffffffffffffffffffffffffffffffffffffff1614610a67576040517f08c379a0000000000000000000000000000000000000000000000000000000008152600401610a5e90612576565b60405180910390fd5b600073ffffffffffffffffffffffffffffffffffffffff168173ffffffffffffffffffffffffffffffffffffffff161415610ad7576040517f08c379a0000000000000000000000000000000000000000000000000000000008152600401610ace906124d6565b60405180910390fd5b610ae08161103d565b50565b60007f01ffc9a7000000000000000000000000000000000000000000000000000000007bffffffffffffffffffffffffffffffffffffffffffffffffffffffff1916827bffffffffffffffffffffffffffffffffffffffffffffffffffffffff1916149050919050565b600033905090565b8060029080519060200190610b6b929190611955565b5050565b8151835114610bb3576040517f08c379a0000000000000000000000000000000000000000000000000000000008152600401610baa906125d6565b60405180910390fd5b600073ffffffffffffffffffffffffffffffffffffffff168473ffffffffffffffffffffffffffffffffffffffff161415610c23576040517f08c379a0000000000000000000000000000000000000000000000000000000008152600401610c1a90612516565b60405180910390fd5b6000610c2d610b4d565b9050610c3d8187878787876114f2565b60005b8451811015610dee576000858281518110610c5e57610c5d6129c0565b5b602002602001015190506000858381518110610c7d57610c7c6129c0565b5b60200260200101519050600080600084815260200190815260200160002060008b73ffffffffffffffffffffffffffffffffffffffff1673ffffffffffffffffffffffffffffffffffffffff16815260200190815260200160002054905081811015610d1e576040517f08c379a0000000000000000000000000000000000000000000000000000000008152600401610d1590612556565b60405180910390fd5b81810360008085815260200190815260200160002060008c73ffffffffffffffffffffffffffffffffffffffff1673ffffffffffffffffffffffffffffffffffffffff168152602001908152602001600020819055508160008085815260200190815260200160002060008b73ffffffffffffffffffffffffffffffffffffffff1673ffffffffffffffffffffffffffffffffffffffff1681526020019081526020016000206000828254610dd391906127aa565b9250508190555050505080610de790612919565b9050610c40565b508473ffffffffffffffffffffffffffffffffffffffff168673ffffffffffffffffffffffffffffffffffffffff168273ffffffffffffffffffffffffffffffffffffffff167f4a39dc06d4c0dbc64b70af90fd698a233a518aa5d07e595d983b8c0526c8f7fb8787604051610e65929190612402565b60405180910390a4610e7b8187878787876114fa565b505050505050565b600081600001549050919050565b6001816000016000828254019250508190555050565b600073ffffffffffffffffffffffffffffffffffffffff168473ffffffffffffffffffffffffffffffffffffffff161415610f17576040517f08c379a0000000000000000000000000000000000000000000000000000000008152600401610f0e906125f6565b60405180910390fd5b6000610f21610b4d565b9050610f4281600087610f33886116e1565b610f3c886116e1565b876114f2565b8260008086815260200190815260200160002060008773ffffffffffffffffffffffffffffffffffffffff1673ffffffffffffffffffffffffffffffffffffffff1681526020019081526020016000206000828254610fa191906127aa565b925050819055508473ffffffffffffffffffffffffffffffffffffffff16600073ffffffffffffffffffffffffffffffffffffffff168273ffffffffffffffffffffffffffffffffffffffff167fc3d58168c5ae7397731d063d5bbf3d657854427343f4c083240f7aacaa2d0f62878760405161101f929190612631565b60405180910390a46110368160008787878761175b565b5050505050565b6000600360009054906101000a900473ffffffffffffffffffffffffffffffffffffffff16905081600360006101000a81548173ffffffffffffffffffffffffffffffffffffffff021916908373ffffffffffffffffffffffffffffffffffffffff1602179055508173ffffffffffffffffffffffffffffffffffffffff168173ffffffffffffffffffffffffffffffffffffffff167f8be0079c531659141344cd1fd0a4f28419497f9722a3daafe3b4186f6b6457e060405160405180910390a35050565b8173ffffffffffffffffffffffffffffffffffffffff168373ffffffffffffffffffffffffffffffffffffffff161415611172576040517f08c379a000000000000000000000000000000000000000000000000000000000815260040161116990612596565b60405180910390fd5b80600160008573ffffffffffffffffffffffffffffffffffffffff1673ffffffffffffffffffffffffffffffffffffffff16815260200190815260200160002060008473ffffffffffffffffffffffffffffffffffffffff1673ffffffffffffffffffffffffffffffffffffffff16815260200190815260200160002060006101000a81548160ff0219169083151502179055508173ffffffffffffffffffffffffffffffffffffffff168373ffffffffffffffffffffffffffffffffffffffff167f17307eab39ab6107e8899845ad3d59bd9653f200f220920489ca2b5937696c31836040516112639190612439565b60405180910390a3505050565b600073ffffffffffffffffffffffffffffffffffffffff168473ffffffffffffffffffffffffffffffffffffffff1614156112e0576040517f08c379a00000000000000000000000000000000000000000000000000000000081526004016112d790612516565b60405180910390fd5b60006112ea610b4d565b905061130a8187876112fb886116e1565b611304886116e1565b876114f2565b600080600086815260200190815260200160002060008873ffffffffffffffffffffffffffffffffffffffff1673ffffffffffffffffffffffffffffffffffffffff168152602001908152602001600020549050838110156113a1576040517f08c379a000000000000000000000000000000000000000000000000000000000815260040161139890612556565b60405180910390fd5b83810360008087815260200190815260200160002060008973ffffffffffffffffffffffffffffffffffffffff1673ffffffffffffffffffffffffffffffffffffffff168152602001908152602001600020819055508360008087815260200190815260200160002060008873ffffffffffffffffffffffffffffffffffffffff1673ffffffffffffffffffffffffffffffffffffffff168152602001908152602001600020600082825461145691906127aa565b925050819055508573ffffffffffffffffffffffffffffffffffffffff168773ffffffffffffffffffffffffffffffffffffffff168373ffffffffffffffffffffffffffffffffffffffff167fc3d58168c5ae7397731d063d5bbf3d657854427343f4c083240f7aacaa2d0f6288886040516114d3929190612631565b60405180910390a46114e982888888888861175b565b50505050505050565b505050505050565b6115198473ffffffffffffffffffffffffffffffffffffffff16611942565b156116d9578373ffffffffffffffffffffffffffffffffffffffff1663bc197c8187878686866040518663ffffffff1660e01b815260040161155f95949392919061231e565b602060405180830381600087803b15801561157957600080fd5b505af19250505080156115aa57506040513d601f19601f820116820180604052508101906115a79190611f75565b60015b611650576115b6612a1e565b806308c379a0141561161357506115cb612e54565b806115d65750611615565b806040517f08c379a000000000000000000000000000000000000000000000000000000000815260040161160a9190612454565b60405180910390fd5b505b6040517f08c379a000000000000000000000000000000000000000000000000000000000815260040161164790612476565b60405180910390fd5b63bc197c8160e01b7bffffffffffffffffffffffffffffffffffffffffffffffffffffffff1916817bffffffffffffffffffffffffffffffffffffffffffffffffffffffff1916146116d7576040517f08c379a00000000000000000000000000000000000000000000000000000000081526004016116ce90612496565b60405180910390fd5b505b505050505050565b60606000600167ffffffffffffffff811115611700576116ff6129ef565b5b60405190808252806020026020018201604052801561172e5781602001602082028036833780820191505090505b5090508281600081518110611746576117456129c0565b5b60200260200101818152505080915050919050565b61177a8473ffffffffffffffffffffffffffffffffffffffff16611942565b1561193a578373ffffffffffffffffffffffffffffffffffffffff1663f23a6e6187878686866040518663ffffffff1660e01b81526004016117c0959493929190612386565b602060405180830381600087803b1580156117da57600080fd5b505af192505050801561180b57506040513d601f19601f820116820180604052508101906118089190611f75565b60015b6118b157611817612a1e565b806308c379a01415611874575061182c612e54565b806118375750611876565b806040517f08c379a000000000000000000000000000000000000000000000000000000000815260040161186b9190612454565b60405180910390fd5b505b6040517f08c379a00000000000000000000000000000000000000000000000000000000081526004016118a890612476565b60405180910390fd5b63f23a6e6160e01b7bffffffffffffffffffffffffffffffffffffffffffffffffffffffff1916817bffffffffffffffffffffffffffffffffffffffffffffffffffffffff191614611938576040517f08c379a000000000000000000000000000000000000000000000000000000000815260040161192f90612496565b60405180910390fd5b505b505050505050565b600080823b905060008111915050919050565b828054611961906128b6565b90600052602060002090601f01602090048101928261198357600085556119ca565b82601f1061199c57805160ff19168380011785556119ca565b828001600101855582156119ca579182015b828111156119c95782518255916020019190600101906119ae565b5b5090506119d791906119db565b5090565b5b808211156119f45760008160009055506001016119dc565b5090565b6000611a0b611a068461267f565b61265a565b90508083825260208201905082856020860282011115611a2e57611a2d612a45565b5b60005b85811015611a5e5781611a448882611b5c565b845260208401935060208301925050600181019050611a31565b5050509392505050565b6000611a7b611a76846126ab565b61265a565b90508083825260208201905082856020860282011115611a9e57611a9d612a45565b5b60005b85811015611ace5781611ab48882611c68565b845260208401935060208301925050600181019050611aa1565b5050509392505050565b6000611aeb611ae6846126d7565b61265a565b905082815260208101848484011115611b0757611b06612a4a565b5b611b12848285612874565b509392505050565b6000611b2d611b2884612708565b61265a565b905082815260208101848484011115611b4957611b48612a4a565b5b611b54848285612874565b509392505050565b600081359050611b6b81612eea565b92915050565b600082601f830112611b8657611b85612a40565b5b8135611b968482602086016119f8565b91505092915050565b600082601f830112611bb457611bb3612a40565b5b8135611bc4848260208601611a68565b91505092915050565b600081359050611bdc81612f01565b92915050565b600081359050611bf181612f18565b92915050565b600081519050611c0681612f18565b92915050565b600082601f830112611c2157611c20612a40565b5b8135611c31848260208601611ad8565b91505092915050565b600082601f830112611c4f57611c4e612a40565b5b8135611c5f848260208601611b1a565b91505092915050565b600081359050611c7781612f2f565b92915050565b600060208284031215611c9357611c92612a54565b5b6000611ca184828501611b5c565b91505092915050565b60008060408385031215611cc157611cc0612a54565b5b6000611ccf85828601611b5c565b9250506020611ce085828601611b5c565b9150509250929050565b600080600080600060a08688031215611d0657611d05612a54565b5b6000611d1488828901611b5c565b9550506020611d2588828901611b5c565b945050604086013567ffffffffffffffff811115611d4657611d45612a4f565b5b611d5288828901611b9f565b935050606086013567ffffffffffffffff811115611d7357611d72612a4f565b5b611d7f88828901611b9f565b925050608086013567ffffffffffffffff811115611da057611d9f612a4f565b5b611dac88828901611c0c565b9150509295509295909350565b600080600080600060a08688031215611dd557611dd4612a54565b5b6000611de388828901611b5c565b9550506020611df488828901611b5c565b9450506040611e0588828901611c68565b9350506060611e1688828901611c68565b925050608086013567ffffffffffffffff811115611e3757611e36612a4f565b5b611e4388828901611c0c565b9150509295509295909350565b60008060408385031215611e6757611e66612a54565b5b6000611e7585828601611b5c565b9250506020611e8685828601611bcd565b9150509250929050565b60008060408385031215611ea757611ea6612a54565b5b6000611eb585828601611b5c565b9250506020611ec685828601611c68565b9150509250929050565b60008060408385031215611ee757611ee6612a54565b5b600083013567ffffffffffffffff811115611f0557611f04612a4f565b5b611f1185828601611b71565b925050602083013567ffffffffffffffff811115611f3257611f31612a4f565b5b611f3e85828601611b9f565b9150509250929050565b600060208284031215611f5e57611f5d612a54565b5b6000611f6c84828501611be2565b91505092915050565b600060208284031215611f8b57611f8a612a54565b5b6000611f9984828501611bf7565b91505092915050565b600060208284031215611fb857611fb7612a54565b5b600082013567ffffffffffffffff811115611fd657611fd5612a4f565b5b611fe284828501611c3a565b91505092915050565b60006020828403121561200157612000612a54565b5b600061200f84828501611c68565b91505092915050565b600061202483836122e5565b60208301905092915050565b61203981612800565b82525050565b600061204a82612749565b6120548185612777565b935061205f83612739565b8060005b838110156120905781516120778882612018565b97506120828361276a565b925050600181019050612063565b5085935050505092915050565b6120a681612812565b82525050565b60006120b782612754565b6120c18185612788565b93506120d1818560208601612883565b6120da81612a59565b840191505092915050565b60006120f08261275f565b6120fa8185612799565b935061210a818560208601612883565b61211381612a59565b840191505092915050565b600061212b603483612799565b915061213682612a77565b604082019050919050565b600061214e602883612799565b915061215982612ac6565b604082019050919050565b6000612171602b83612799565b915061217c82612b15565b604082019050919050565b6000612194602683612799565b915061219f82612b64565b604082019050919050565b60006121b7602983612799565b91506121c282612bb3565b604082019050919050565b60006121da602583612799565b91506121e582612c02565b604082019050919050565b60006121fd603283612799565b915061220882612c51565b604082019050919050565b6000612220602a83612799565b915061222b82612ca0565b604082019050919050565b6000612243602083612799565b915061224e82612cef565b602082019050919050565b6000612266602983612799565b915061227182612d18565b604082019050919050565b6000612289602983612799565b915061229482612d67565b604082019050919050565b60006122ac602883612799565b91506122b782612db6565b604082019050919050565b60006122cf602183612799565b91506122da82612e05565b604082019050919050565b6122ee8161286a565b82525050565b6122fd8161286a565b82525050565b60006020820190506123186000830184612030565b92915050565b600060a0820190506123336000830188612030565b6123406020830187612030565b8181036040830152612352818661203f565b90508181036060830152612366818561203f565b9050818103608083015261237a81846120ac565b90509695505050505050565b600060a08201905061239b6000830188612030565b6123a86020830187612030565b6123b560408301866122f4565b6123c260608301856122f4565b81810360808301526123d481846120ac565b90509695505050505050565b600060208201905081810360008301526123fa818461203f565b905092915050565b6000604082019050818103600083015261241c818561203f565b90508181036020830152612430818461203f565b90509392505050565b600060208201905061244e600083018461209d565b92915050565b6000602082019050818103600083015261246e81846120e5565b905092915050565b6000602082019050818103600083015261248f8161211e565b9050919050565b600060208201905081810360008301526124af81612141565b9050919050565b600060208201905081810360008301526124cf81612164565b9050919050565b600060208201905081810360008301526124ef81612187565b9050919050565b6000602082019050818103600083015261250f816121aa565b9050919050565b6000602082019050818103600083015261252f816121cd565b9050919050565b6000602082019050818103600083015261254f816121f0565b9050919050565b6000602082019050818103600083015261256f81612213565b9050919050565b6000602082019050818103600083015261258f81612236565b9050919050565b600060208201905081810360008301526125af81612259565b9050919050565b600060208201905081810360008301526125cf8161227c565b9050919050565b600060208201905081810360008301526125ef8161229f565b9050919050565b6000602082019050818103600083015261260f816122c2565b9050919050565b600060208201905061262b60008301846122f4565b92915050565b600060408201905061264660008301856122f4565b61265360208301846122f4565b9392505050565b6000612664612675565b905061267082826128e8565b919050565b6000604051905090565b600067ffffffffffffffff82111561269a576126996129ef565b5b602082029050602081019050919050565b600067ffffffffffffffff8211156126c6576126c56129ef565b5b602082029050602081019050919050565b600067ffffffffffffffff8211156126f2576126f16129ef565b5b6126fb82612a59565b9050602081019050919050565b600067ffffffffffffffff821115612723576127226129ef565b5b61272c82612a59565b9050602081019050919050565b6000819050602082019050919050565b600081519050919050565b600081519050919050565b600081519050919050565b6000602082019050919050565b600082825260208201905092915050565b600082825260208201905092915050565b600082825260208201905092915050565b60006127b58261286a565b91506127c08361286a565b9250827fffffffffffffffffffffffffffffffffffffffffffffffffffffffffffffffff038211156127f5576127f4612962565b5b828201905092915050565b600061280b8261284a565b9050919050565b60008115159050919050565b60007fffffffff0000000000000000000000000000000000000000000000000000000082169050919050565b600073ffffffffffffffffffffffffffffffffffffffff82169050919050565b6000819050919050565b82818337600083830152505050565b60005b838110156128a1578082015181840152602081019050612886565b838111156128b0576000848401525b50505050565b600060028204905060018216806128ce57607f821691505b602082108114156128e2576128e1612991565b5b50919050565b6128f182612a59565b810181811067ffffffffffffffff821117156129105761290f6129ef565b5b80604052505050565b60006129248261286a565b91507fffffffffffffffffffffffffffffffffffffffffffffffffffffffffffffffff82141561295757612956612962565b5b600182019050919050565b7f4e487b7100000000000000000000000000000000000000000000000000000000600052601160045260246000fd5b7f4e487b7100000000000000000000000000000000000000000000000000000000600052602260045260246000fd5b7f4e487b7100000000000000000000000000000000000000000000000000000000600052603260045260246000fd5b7f4e487b7100000000000000000000000000000000000000000000000000000000600052604160045260246000fd5b600060033d1115612a3d5760046000803e612a3a600051612a6a565b90505b90565b600080fd5b600080fd5b600080fd5b600080fd5b600080fd5b6000601f19601f8301169050919050565b60008160e01c9050919050565b7f455243313135353a207472616e7366657220746f206e6f6e204552433131353560008201527f526563656976657220696d706c656d656e746572000000000000000000000000602082015250565b7f455243313135353a204552433131353552656365697665722072656a6563746560008201527f6420746f6b656e73000000000000000000000000000000000000000000000000602082015250565b7f455243313135353a2062616c616e636520717565727920666f7220746865207a60008201527f65726f2061646472657373000000000000000000000000000000000000000000602082015250565b7f4f776e61626c653a206e6577206f776e657220697320746865207a65726f206160008201527f6464726573730000000000000000000000000000000000000000000000000000602082015250565b7f455243313135353a2063616c6c6572206973206e6f74206f776e6572206e6f7260008201527f20617070726f7665640000000000000000000000000000000000000000000000602082015250565b7f455243313135353a207472616e7366657220746f20746865207a65726f20616460008201527f6472657373000000000000000000000000000000000000000000000000000000602082015250565b7f455243313135353a207472616e736665722063616c6c6572206973206e6f742060008201527f6f776e6572206e6f7220617070726f7665640000000000000000000000000000602082015250565b7f455243313135353a20696e73756666696369656e742062616c616e636520666f60008201527f72207472616e7366657200000000000000000000000000000000000000000000602082015250565b7f4f776e61626c653a2063616c6c6572206973206e6f7420746865206f776e6572600082015250565b7f455243313135353a2073657474696e6720617070726f76616c2073746174757360008201527f20666f722073656c660000000000000000000000000000000000000000000000602082015250565b7f455243313135353a206163636f756e747320616e6420696473206c656e67746860008201527f206d69736d617463680000000000000000000000000000000000000000000000602082015250565b7f455243313135353a2069647320616e6420616d6f756e7473206c656e6774682060008201527f6d69736d61746368000000000000000000000000000000000000000000000000602082015250565b7f455243313135353a206d696e7420746f20746865207a65726f2061646472657360008201527f7300000000000000000000000000000000000000000000000000000000000000602082015250565b600060443d1015612e6457612ee7565b612e6c612675565b60043d036004823e80513d602482011167ffffffffffffffff82111715612e94575050612ee7565b808201805167ffffffffffffffff811115612eb25750505050612ee7565b80602083010160043d038501811115612ecf575050505050612ee7565b612ede826020018501866128e8565b82955050505050505b90565b612ef381612800565b8114612efe57600080fd5b50565b612f0a81612812565b8114612f1557600080fd5b50565b612f218161281e565b8114612f2c57600080fd5b50565b612f388161286a565b8114612f4357600080fd5b5056fea2646970667358221220a3a3b5a6cb69f8bb8921b7550f7d02286be1a75f3a9bc7aecb33f45e6231f00164736f6c63430008070033",
  "linkReferences": {},
  "deployedLinkReferences": {}
}