{
  "_format": "hh-sol-artifact-1",
  "contractName": "FaucetFactory",
  "sourceName": "contracts/faucet/FaucetFactory.sol",
  "abi": [
    {
      "inputs": [
        {
          "internalType": "address",
          "name": "",
          "type": "address"
        }
      ],
      "name": "FaucetTable",
      "outputs": [
        {
          "internalType": "uint256",
          "name": "amtPerRequest",
          "type": "uint256"
        }
      ],
      "stateMutability": "view",
      "type": "function"
    },
    {
      "inputs": [
        {
          "internalType": "address",
          "name": "_erc20Addr",
          "type": "address"
        }
      ],
      "name": "claimTokens",
      "outputs": [],
      "stateMutability": "nonpayable",
      "type": "function"
    },
    {
      "inputs": [
        {
          "internalType": "address",
          "name": "_erc20Addr",
          "type": "address"
        },
        {
          "internalType": "uint256",
          "name": "_depositAmt",
          "type": "uint256"
        },
        {
          "internalType": "uint256",
          "name": "_giveAmtPerRequest",
          "type": "uint256"
        }
      ],
      "name": "createFaucent",
      "outputs": [],
      "stateMutability": "nonpayable",
      "type": "function"
    }
  ],
  "bytecode": "0x608060405234801561001057600080fd5b506104c6806100206000396000f3fe608060405234801561001057600080fd5b50600436106100415760003560e01c8063793e95c614610046578063c1b36ddb14610062578063df8de3e714610092575b600080fd5b610060600480360381019061005b91906102e5565b6100ae565b005b61007c600480360381019061007791906102b8565b610189565b60405161008991906103e3565b60405180910390f35b6100ac60048036038101906100a791906102b8565b6101a7565b005b8273ffffffffffffffffffffffffffffffffffffffff166323b872dd3330856040518463ffffffff1660e01b81526004016100eb93929190610383565b602060405180830381600087803b15801561010557600080fd5b505af1158015610119573d6000803e3d6000fd5b505050506040513d601f19601f8201168201806040525081019061013d9190610338565b50806000808573ffffffffffffffffffffffffffffffffffffffff1673ffffffffffffffffffffffffffffffffffffffff16815260200190815260200160002060000181905550505050565b60006020528060005260406000206000915090508060000154905081565b8073ffffffffffffffffffffffffffffffffffffffff1663a9059cbb336000808573ffffffffffffffffffffffffffffffffffffffff1673ffffffffffffffffffffffffffffffffffffffff168152602001908152602001600020600001546040518363ffffffff1660e01b81526004016102239291906103ba565b602060405180830381600087803b15801561023d57600080fd5b505af1158015610251573d6000803e3d6000fd5b505050506040513d601f19601f820116820180604052508101906102759190610338565b5050565b6000813590506102888161044b565b92915050565b60008151905061029d81610462565b92915050565b6000813590506102b281610479565b92915050565b6000602082840312156102ce576102cd610446565b5b60006102dc84828501610279565b91505092915050565b6000806000606084860312156102fe576102fd610446565b5b600061030c86828701610279565b935050602061031d868287016102a3565b925050604061032e868287016102a3565b9150509250925092565b60006020828403121561034e5761034d610446565b5b600061035c8482850161028e565b91505092915050565b61036e816103fe565b82525050565b61037d8161043c565b82525050565b60006060820190506103986000830186610365565b6103a56020830185610365565b6103b26040830184610374565b949350505050565b60006040820190506103cf6000830185610365565b6103dc6020830184610374565b9392505050565b60006020820190506103f86000830184610374565b92915050565b60006104098261041c565b9050919050565b60008115159050919050565b600073ffffffffffffffffffffffffffffffffffffffff82169050919050565b6000819050919050565b600080fd5b610454816103fe565b811461045f57600080fd5b50565b61046b81610410565b811461047657600080fd5b50565b6104828161043c565b811461048d57600080fd5b5056fea2646970667358221220fe526046ab80d4ae30ce8b4019ba1a8137ec0adca3fb1f730c0438233db4da1164736f6c63430008070033",
  "linkReferences": {},
  "deployedLinkReferences": {}
}