{
  "_format": "hh-sol-artifact-1",
  "contractName": "FaucetV1",
  "sourceName": "contracts/faucet/FaucetV1.sol",
  "abi": [
    {
      "inputs": [],
      "stateMutability": "nonpayable",
      "type": "constructor"
    },
    {
      "inputs": [
        {
          "internalType": "address",
          "name": "_erc20Address",
          "type": "address"
        },
        {
          "internalType": "string",
          "name": "_erc20Name",
          "type": "string"
        },
        {
          "internalType": "string",
          "name": "_erc20Symbol",
          "type": "string"
        },
        {
          "internalType": "uint256",
          "name": "_erc20Decimals",
          "type": "uint256"
        }
      ],
      "name": "changeErc20Data",
      "outputs": [],
      "stateMutability": "nonpayable",
      "type": "function"
    },
    {
      "inputs": [
        {
          "internalType": "address",
          "name": "_newManager",
          "type": "address"
        }
      ],
      "name": "changeManager",
      "outputs": [],
      "stateMutability": "nonpayable",
      "type": "function"
    },
    {
      "inputs": [],
      "name": "erc20Address",
      "outputs": [
        {
          "internalType": "address",
          "name": "",
          "type": "address"
        }
      ],
      "stateMutability": "view",
      "type": "function"
    },
    {
      "inputs": [],
      "name": "erc20Decimals",
      "outputs": [
        {
          "internalType": "uint256",
          "name": "",
          "type": "uint256"
        }
      ],
      "stateMutability": "view",
      "type": "function"
    },
    {
      "inputs": [],
      "name": "erc20Name",
      "outputs": [
        {
          "internalType": "string",
          "name": "",
          "type": "string"
        }
      ],
      "stateMutability": "view",
      "type": "function"
    },
    {
      "inputs": [],
      "name": "erc20Symbol",
      "outputs": [
        {
          "internalType": "string",
          "name": "",
          "type": "string"
        }
      ],
      "stateMutability": "view",
      "type": "function"
    },
    {
      "inputs": [],
      "name": "get1000Erc20Tokens",
      "outputs": [],
      "stateMutability": "nonpayable",
      "type": "function"
    },
    {
      "inputs": [],
      "name": "getErc20Balance",
      "outputs": [
        {
          "internalType": "uint256",
          "name": "",
          "type": "uint256"
        }
      ],
      "stateMutability": "view",
      "type": "function"
    },
    {
      "inputs": [],
      "name": "manager",
      "outputs": [
        {
          "internalType": "address",
          "name": "",
          "type": "address"
        }
      ],
      "stateMutability": "view",
      "type": "function"
    }
  ],
  "bytecode": "0x608060405234801561001057600080fd5b50336000806101000a81548173ffffffffffffffffffffffffffffffffffffffff021916908373ffffffffffffffffffffffffffffffffffffffff160217905550610e7b806100606000396000f3fe608060405234801561001057600080fd5b50600436106100935760003560e01c8063b82dd99a11610066578063b82dd99a1461010e578063cd94d51f1461012c578063d387b18514610148578063eb24d10e14610152578063ed1b30c41461017057610093565b8063276184ae146100985780633cb5d379146100b6578063481c6a75146100d4578063a3fbbaae146100f2575b600080fd5b6100a061018e565b6040516100ad919061093b565b60405180910390f35b6100be6101b4565b6040516100cb91906109c1565b60405180910390f35b6100dc6101ba565b6040516100e9919061093b565b60405180910390f35b61010c600480360381019061010791906107b3565b6101de565b005b6101166102af565b604051610123919061097f565b60405180910390f35b610146600480360381019061014191906107dc565b61033d565b005b610150610447565b005b61015a610514565b60405161016791906109c1565b60405180910390f35b6101786105c6565b604051610185919061097f565b60405180910390f35b600160009054906101000a900473ffffffffffffffffffffffffffffffffffffffff1681565b60045481565b60008054906101000a900473ffffffffffffffffffffffffffffffffffffffff1681565b60008054906101000a900473ffffffffffffffffffffffffffffffffffffffff1673ffffffffffffffffffffffffffffffffffffffff163373ffffffffffffffffffffffffffffffffffffffff161461026c576040517f08c379a0000000000000000000000000000000000000000000000000000000008152600401610263906109a1565b60405180910390fd5b806000806101000a81548173ffffffffffffffffffffffffffffffffffffffff021916908373ffffffffffffffffffffffffffffffffffffffff16021790555050565b600280546102bc90610ca3565b80601f01602080910402602001604051908101604052809291908181526020018280546102e890610ca3565b80156103355780601f1061030a57610100808354040283529160200191610335565b820191906000526020600020905b81548152906001019060200180831161031857829003601f168201915b505050505081565b60008054906101000a900473ffffffffffffffffffffffffffffffffffffffff1673ffffffffffffffffffffffffffffffffffffffff163373ffffffffffffffffffffffffffffffffffffffff16146103cb576040517f08c379a00000000000000000000000000000000000000000000000000000000081526004016103c2906109a1565b60405180910390fd5b83600160006101000a81548173ffffffffffffffffffffffffffffffffffffffff021916908373ffffffffffffffffffffffffffffffffffffffff1602179055508260029080519060200190610422929190610654565b508160039080519060200190610439929190610654565b508060048190555050505050565b600160009054906101000a900473ffffffffffffffffffffffffffffffffffffffff1673ffffffffffffffffffffffffffffffffffffffff1663a9059cbb33600454600a6104959190610aa1565b6103e86104a29190610bbf565b6040518363ffffffff1660e01b81526004016104bf929190610956565b602060405180830381600087803b1580156104d957600080fd5b505af11580156104ed573d6000803e3d6000fd5b505050506040513d601f19601f82011682018060405250810190610511919061086f565b50565b6000600160009054906101000a900473ffffffffffffffffffffffffffffffffffffffff1673ffffffffffffffffffffffffffffffffffffffff166370a08231306040518263ffffffff1660e01b8152600401610571919061093b565b60206040518083038186803b15801561058957600080fd5b505afa15801561059d573d6000803e3d6000fd5b505050506040513d601f19601f820116820180604052508101906105c19190610898565b905090565b600380546105d390610ca3565b80601f01602080910402602001604051908101604052809291908181526020018280546105ff90610ca3565b801561064c5780601f106106215761010080835404028352916020019161064c565b820191906000526020600020905b81548152906001019060200180831161062f57829003601f168201915b505050505081565b82805461066090610ca3565b90600052602060002090601f01602090048101928261068257600085556106c9565b82601f1061069b57805160ff19168380011785556106c9565b828001600101855582156106c9579182015b828111156106c85782518255916020019190600101906106ad565b5b5090506106d691906106da565b5090565b5b808211156106f35760008160009055506001016106db565b5090565b600061070a61070584610a01565b6109dc565b90508281526020810184848401111561072257600080fd5b61072d848285610c61565b509392505050565b60008135905061074481610e00565b92915050565b60008151905061075981610e17565b92915050565b600082601f83011261077057600080fd5b81356107808482602086016106f7565b91505092915050565b60008135905061079881610e2e565b92915050565b6000815190506107ad81610e2e565b92915050565b6000602082840312156107c557600080fd5b60006107d384828501610735565b91505092915050565b600080600080608085870312156107f257600080fd5b600061080087828801610735565b945050602085013567ffffffffffffffff81111561081d57600080fd5b6108298782880161075f565b935050604085013567ffffffffffffffff81111561084657600080fd5b6108528782880161075f565b925050606061086387828801610789565b91505092959194509250565b60006020828403121561088157600080fd5b600061088f8482850161074a565b91505092915050565b6000602082840312156108aa57600080fd5b60006108b88482850161079e565b91505092915050565b6108ca81610c19565b82525050565b60006108db82610a32565b6108e58185610a3d565b93506108f5818560208601610c70565b6108fe81610d93565b840191505092915050565b6000610916602583610a3d565b915061092182610db1565b604082019050919050565b61093581610c57565b82525050565b600060208201905061095060008301846108c1565b92915050565b600060408201905061096b60008301856108c1565b610978602083018461092c565b9392505050565b6000602082019050818103600083015261099981846108d0565b905092915050565b600060208201905081810360008301526109ba81610909565b9050919050565b60006020820190506109d6600083018461092c565b92915050565b60006109e66109f7565b90506109f28282610cd5565b919050565b6000604051905090565b600067ffffffffffffffff821115610a1c57610a1b610d64565b5b610a2582610d93565b9050602081019050919050565b600081519050919050565b600082825260208201905092915050565b6000808291508390505b6001851115610a9857808604811115610a7457610a73610d06565b5b6001851615610a835780820291505b8081029050610a9185610da4565b9450610a58565b94509492505050565b6000610aac82610c57565b9150610ab783610c57565b9250610ae47fffffffffffffffffffffffffffffffffffffffffffffffffffffffffffffffff8484610aec565b905092915050565b600082610afc5760019050610bb8565b81610b0a5760009050610bb8565b8160018114610b205760028114610b2a57610b59565b6001915050610bb8565b60ff841115610b3c57610b3b610d06565b5b8360020a915084821115610b5357610b52610d06565b5b50610bb8565b5060208310610133831016604e8410600b8410161715610b8e5782820a905083811115610b8957610b88610d06565b5b610bb8565b610b9b8484846001610a4e565b92509050818404811115610bb257610bb1610d06565b5b81810290505b9392505050565b6000610bca82610c57565b9150610bd583610c57565b9250817fffffffffffffffffffffffffffffffffffffffffffffffffffffffffffffffff0483118215151615610c0e57610c0d610d06565b5b828202905092915050565b6000610c2482610c37565b9050919050565b60008115159050919050565b600073ffffffffffffffffffffffffffffffffffffffff82169050919050565b6000819050919050565b82818337600083830152505050565b60005b83811015610c8e578082015181840152602081019050610c73565b83811115610c9d576000848401525b50505050565b60006002820490506001821680610cbb57607f821691505b60208210811415610ccf57610cce610d35565b5b50919050565b610cde82610d93565b810181811067ffffffffffffffff82111715610cfd57610cfc610d64565b5b80604052505050565b7f4e487b7100000000000000000000000000000000000000000000000000000000600052601160045260246000fd5b7f4e487b7100000000000000000000000000000000000000000000000000000000600052602260045260246000fd5b7f4e487b7100000000000000000000000000000000000000000000000000000000600052604160045260246000fd5b6000601f19601f8301169050919050565b60008160011c9050919050565b7f4f6e6c79204d616e616765722063616e2065786563757465207468652066756e60008201527f6374696f6e000000000000000000000000000000000000000000000000000000602082015250565b610e0981610c19565b8114610e1457600080fd5b50565b610e2081610c2b565b8114610e2b57600080fd5b50565b610e3781610c57565b8114610e4257600080fd5b5056fea2646970667358221220a4b49dae407d8b7dad5bc7711d654a7ae783791be60b77073f9f9d20b1685b2164736f6c63430008020033",
  "linkReferences": {},
  "deployedLinkReferences": {}
}