{
  "_format": "hh-sol-artifact-1",
  "contractName": "LockerV3",
  "sourceName": "contracts/locker/LockerV3.sol",
  "abi": [
    {
      "anonymous": false,
      "inputs": [
        {
          "indexed": false,
          "internalType": "address",
          "name": "user",
          "type": "address"
        },
        {
          "indexed": true,
          "internalType": "string",
          "name": "tokenType",
          "type": "string"
        },
        {
          "indexed": true,
          "internalType": "uint256",
          "name": "tokenAddress",
          "type": "uint256"
        },
        {
          "indexed": false,
          "internalType": "uint256",
          "name": "tokenAmount",
          "type": "uint256"
        }
      ],
      "name": "TokenLocked",
      "type": "event"
    },
    {
      "inputs": [
        {
          "internalType": "string",
          "name": "_tokenType",
          "type": "string"
        },
        {
          "internalType": "address",
          "name": "_tokenAddress",
          "type": "address"
        },
        {
          "internalType": "uint256",
          "name": "_tokenId",
          "type": "uint256"
        },
        {
          "internalType": "uint256",
          "name": "_tokenAmount",
          "type": "uint256"
        },
        {
          "internalType": "uint256",
          "name": "_unlockTime",
          "type": "uint256"
        }
      ],
      "name": "createLocker",
      "outputs": [],
      "stateMutability": "payable",
      "type": "function"
    },
    {
      "inputs": [
        {
          "internalType": "uint256",
          "name": "_lockerId",
          "type": "uint256"
        }
      ],
      "name": "destroyLocker",
      "outputs": [],
      "stateMutability": "nonpayable",
      "type": "function"
    },
    {
      "inputs": [
        {
          "internalType": "uint256",
          "name": "_lockerId",
          "type": "uint256"
        }
      ],
      "name": "getLockerInfo",
      "outputs": [
        {
          "components": [
            {
              "internalType": "address payable",
              "name": "tokenOwner",
              "type": "address"
            },
            {
              "internalType": "string",
              "name": "tokenType",
              "type": "string"
            },
            {
              "internalType": "address",
              "name": "tokenAddress",
              "type": "address"
            },
            {
              "internalType": "uint256",
              "name": "tokenId",
              "type": "uint256"
            },
            {
              "internalType": "uint256",
              "name": "tokenAmount",
              "type": "uint256"
            },
            {
              "internalType": "uint256",
              "name": "lockTime",
              "type": "uint256"
            },
            {
              "internalType": "uint256",
              "name": "unlockTime",
              "type": "uint256"
            },
            {
              "internalType": "bool",
              "name": "isWithdrawn",
              "type": "bool"
            }
          ],
          "internalType": "struct LockerV3.LockerInfo",
          "name": "",
          "type": "tuple"
        }
      ],
      "stateMutability": "view",
      "type": "function"
    },
    {
      "inputs": [
        {
          "internalType": "address",
          "name": "_tokenOwner",
          "type": "address"
        }
      ],
      "name": "getLockersOfUser",
      "outputs": [
        {
          "internalType": "uint256[]",
          "name": "",
          "type": "uint256[]"
        }
      ],
      "stateMutability": "view",
      "type": "function"
    },
    {
      "inputs": [
        {
          "internalType": "address",
          "name": "",
          "type": "address"
        },
        {
          "internalType": "address",
          "name": "",
          "type": "address"
        },
        {
          "internalType": "uint256[]",
          "name": "",
          "type": "uint256[]"
        },
        {
          "internalType": "uint256[]",
          "name": "",
          "type": "uint256[]"
        },
        {
          "internalType": "bytes",
          "name": "",
          "type": "bytes"
        }
      ],
      "name": "onERC1155BatchReceived",
      "outputs": [
        {
          "internalType": "bytes4",
          "name": "",
          "type": "bytes4"
        }
      ],
      "stateMutability": "nonpayable",
      "type": "function"
    },
    {
      "inputs": [
        {
          "internalType": "address",
          "name": "",
          "type": "address"
        },
        {
          "internalType": "address",
          "name": "",
          "type": "address"
        },
        {
          "internalType": "uint256",
          "name": "",
          "type": "uint256"
        },
        {
          "internalType": "uint256",
          "name": "",
          "type": "uint256"
        },
        {
          "internalType": "bytes",
          "name": "",
          "type": "bytes"
        }
      ],
      "name": "onERC1155Received",
      "outputs": [
        {
          "internalType": "bytes4",
          "name": "",
          "type": "bytes4"
        }
      ],
      "stateMutability": "nonpayable",
      "type": "function"
    },
    {
      "inputs": [
        {
          "internalType": "bytes4",
          "name": "interfaceId",
          "type": "bytes4"
        }
      ],
      "name": "supportsInterface",
      "outputs": [
        {
          "internalType": "bool",
          "name": "",
          "type": "bool"
        }
      ],
      "stateMutability": "view",
      "type": "function"
    }
  ],
  "bytecode": "0x608060405234801561001057600080fd5b50612313806100206000396000f3fe6080604052600436106100705760003560e01c806365ebdf911161004e57806365ebdf911461010b578063bc197c8114610134578063dffbd52e14610171578063f23a6e61146101ae57610070565b806301ffc9a7146100755780633dae1720146100b2578063493819c5146100ce575b600080fd5b34801561008157600080fd5b5061009c6004803603810190610097919061177f565b6101eb565b6040516100a99190611ca4565b60405180910390f35b6100cc60048036038101906100c791906117a8565b610265565b005b3480156100da57600080fd5b506100f560048036038101906100f09190611837565b6107c2565b6040516101029190611d9a565b60405180910390f35b34801561011757600080fd5b50610132600480360381019061012d9190611837565b610971565b005b34801561014057600080fd5b5061015b60048036038101906101569190611608565b6111c9565b6040516101689190611cbf565b60405180910390f35b34801561017d57600080fd5b50610198600480360381019061019391906115df565b6111de565b6040516101a59190611c82565b60405180910390f35b3480156101ba57600080fd5b506101d560048036038101906101d091906116c7565b611275565b6040516101e29190611cbf565b60405180910390f35b60007f4e2312e0000000000000000000000000000000000000000000000000000000007bffffffffffffffffffffffffffffffffffffffffffffffffffffffff1916827bffffffffffffffffffffffffffffffffffffffffffffffffffffffff1916148061025e575061025d8261128a565b5b9050919050565b600082116102a8576040517f08c379a000000000000000000000000000000000000000000000000000000000815260040161029f90611d5a565b60405180910390fd5b60003390506102ec866040518060400160405280600381526020017f65746800000000000000000000000000000000000000000000000000000000008152506112f4565b1561033857823414610333576040517f08c379a000000000000000000000000000000000000000000000000000000000815260040161032a90611cda565b60405180910390fd5b6105c8565b610377866040518060400160405280600581526020017f65726332300000000000000000000000000000000000000000000000000000008152506112f4565b15610411578473ffffffffffffffffffffffffffffffffffffffff166323b872dd8230866040518463ffffffff1660e01b81526004016103b993929190611bf3565b602060405180830381600087803b1580156103d357600080fd5b505af11580156103e7573d6000803e3d6000fd5b505050506040513d601f19601f8201168201806040525081019061040b9190611756565b506105c7565b610450866040518060400160405280600681526020017f65726337323100000000000000000000000000000000000000000000000000008152506112f4565b156104c9578473ffffffffffffffffffffffffffffffffffffffff166323b872dd8230876040518463ffffffff1660e01b815260040161049293929190611bf3565b600060405180830381600087803b1580156104ac57600080fd5b505af11580156104c0573d6000803e3d6000fd5b505050506105c6565b610508866040518060400160405280600781526020017f65726331313535000000000000000000000000000000000000000000000000008152506112f4565b15610583578473ffffffffffffffffffffffffffffffffffffffff1663f242432a823087876040518563ffffffff1660e01b815260040161054c9493929190611c2a565b600060405180830381600087803b15801561056657600080fd5b505af115801561057a573d6000803e3d6000fd5b505050506105c5565b60006105c4576040517f08c379a00000000000000000000000000000000000000000000000000000000081526004016105bb90611d1a565b60405180910390fd5b5b5b5b5b6000808154809291906105da9061207b565b9190505550600160008273ffffffffffffffffffffffffffffffffffffffff1673ffffffffffffffffffffffffffffffffffffffff16815260200190815260200160002060005490806001815401808255809150506001900390600052602060002001600090919091909150556040518061010001604052808273ffffffffffffffffffffffffffffffffffffffff1681526020018781526020018673ffffffffffffffffffffffffffffffffffffffff16815260200185815260200184815260200142815260200183815260200160001515815250600260008054815260200190815260200160002060008201518160000160006101000a81548173ffffffffffffffffffffffffffffffffffffffff021916908373ffffffffffffffffffffffffffffffffffffffff160217905550602082015181600101908051906020019061072792919061130f565b5060408201518160020160006101000a81548173ffffffffffffffffffffffffffffffffffffffff021916908373ffffffffffffffffffffffffffffffffffffffff160217905550606082015181600301556080820151816004015560a0820151816005015560c0820151816006015560e08201518160070160006101000a81548160ff021916908315150217905550905050505050505050565b6107ca611395565b60026000838152602001908152602001600020604051806101000160405290816000820160009054906101000a900473ffffffffffffffffffffffffffffffffffffffff1673ffffffffffffffffffffffffffffffffffffffff1673ffffffffffffffffffffffffffffffffffffffff16815260200160018201805461084f90612018565b80601f016020809104026020016040519081016040528092919081815260200182805461087b90612018565b80156108c85780601f1061089d576101008083540402835291602001916108c8565b820191906000526020600020905b8154815290600101906020018083116108ab57829003601f168201915b505050505081526020016002820160009054906101000a900473ffffffffffffffffffffffffffffffffffffffff1673ffffffffffffffffffffffffffffffffffffffff1673ffffffffffffffffffffffffffffffffffffffff168152602001600382015481526020016004820154815260200160058201548152602001600682015481526020016007820160009054906101000a900460ff1615151515815250509050919050565b3373ffffffffffffffffffffffffffffffffffffffff166002600083815260200190815260200160002060000160009054906101000a900473ffffffffffffffffffffffffffffffffffffffff1673ffffffffffffffffffffffffffffffffffffffff1614610a15576040517f08c379a0000000000000000000000000000000000000000000000000000000008152600401610a0c90611d7a565b60405180910390fd5b4260026000838152602001908152602001600020600601541115610a6e576040517f08c379a0000000000000000000000000000000000000000000000000000000008152600401610a6590611d3a565b60405180910390fd5b600015156002600083815260200190815260200160002060070160009054906101000a900460ff16151514610ad8576040517f08c379a0000000000000000000000000000000000000000000000000000000008152600401610acf90611cfa565b60405180910390fd5b6000600260008381526020019081526020016000206001018054610afb90612018565b80601f0160208091040260200160405190810160405280929190818152602001828054610b2790612018565b8015610b745780601f10610b4957610100808354040283529160200191610b74565b820191906000526020600020905b815481529060010190602001808311610b5757829003601f168201915b5050505050905060006002600084815260200190815260200160002060000160009054906101000a900473ffffffffffffffffffffffffffffffffffffffff16905060006002600085815260200190815260200160002060020160009054906101000a900473ffffffffffffffffffffffffffffffffffffffff169050600060026000868152602001908152602001600020600301549050600060026000878152602001908152602001600020600401549050610c66856040518060400160405280600381526020017f65746800000000000000000000000000000000000000000000000000000000008152506112f4565b15610cb7578373ffffffffffffffffffffffffffffffffffffffff166108fc829081150290604051600060405180830381858888f19350505050158015610cb1573d6000803e3d6000fd5b50610eff565b610cf6856040518060400160405280600581526020017f65726332300000000000000000000000000000000000000000000000000000008152506112f4565b15610d8e578273ffffffffffffffffffffffffffffffffffffffff1663a9059cbb85836040518363ffffffff1660e01b8152600401610d36929190611b3b565b602060405180830381600087803b158015610d5057600080fd5b505af1158015610d64573d6000803e3d6000fd5b505050506040513d601f19601f82011682018060405250810190610d889190611756565b50610efe565b610dcd856040518060400160405280600681526020017f65726337323100000000000000000000000000000000000000000000000000008152506112f4565b15610e46578273ffffffffffffffffffffffffffffffffffffffff166323b872dd3086856040518463ffffffff1660e01b8152600401610e0f93929190611b64565b600060405180830381600087803b158015610e2957600080fd5b505af1158015610e3d573d6000803e3d6000fd5b50505050610efd565b610e85856040518060400160405280600781526020017f65726331313535000000000000000000000000000000000000000000000000008152506112f4565b15610efc578273ffffffffffffffffffffffffffffffffffffffff1663f242432a308685856040518563ffffffff1660e01b8152600401610ec99493929190611b9b565b600060405180830381600087803b158015610ee357600080fd5b505af1158015610ef7573d6000803e3d6000fd5b505050505b5b5b5b6000600160008673ffffffffffffffffffffffffffffffffffffffff1673ffffffffffffffffffffffffffffffffffffffff16815260200190815260200160002080549050905060005b818110156111055787600160008873ffffffffffffffffffffffffffffffffffffffff1673ffffffffffffffffffffffffffffffffffffffff1681526020019081526020016000208281548110610fc9577f4e487b7100000000000000000000000000000000000000000000000000000000600052603260045260246000fd5b906000526020600020015414156110f257600160008773ffffffffffffffffffffffffffffffffffffffff1673ffffffffffffffffffffffffffffffffffffffff1681526020019081526020016000206001836110269190611ee6565b8154811061105d577f4e487b7100000000000000000000000000000000000000000000000000000000600052603260045260246000fd5b9060005260206000200154600160008873ffffffffffffffffffffffffffffffffffffffff1673ffffffffffffffffffffffffffffffffffffffff16815260200190815260200160002082815481106110df577f4e487b7100000000000000000000000000000000000000000000000000000000600052603260045260246000fd5b9060005260206000200181905550611105565b80806110fd9061207b565b915050610f49565b50600160008673ffffffffffffffffffffffffffffffffffffffff1673ffffffffffffffffffffffffffffffffffffffff16815260200190815260200160002080548061117b577f4e487b7100000000000000000000000000000000000000000000000000000000600052603160045260246000fd5b6001900381819060005260206000200160009055905560016002600089815260200190815260200160002060070160006101000a81548160ff02191690831515021790555050505050505050565b600063bc197c8160e01b905095945050505050565b6060600160008373ffffffffffffffffffffffffffffffffffffffff1673ffffffffffffffffffffffffffffffffffffffff16815260200190815260200160002080548060200260200160405190810160405280929190818152602001828054801561126957602002820191906000526020600020905b815481526020019060010190808311611255575b50505050509050919050565b600063f23a6e6160e01b905095945050505050565b60007f01ffc9a7000000000000000000000000000000000000000000000000000000007bffffffffffffffffffffffffffffffffffffffffffffffffffffffff1916827bffffffffffffffffffffffffffffffffffffffffffffffffffffffff1916149050919050565b60008180519060200120838051906020012014905092915050565b82805461131b90612018565b90600052602060002090601f01602090048101928261133d5760008555611384565b82601f1061135657805160ff1916838001178555611384565b82800160010185558215611384579182015b82811115611383578251825591602001919060010190611368565b5b5090506113919190611408565b5090565b604051806101000160405280600073ffffffffffffffffffffffffffffffffffffffff16815260200160608152602001600073ffffffffffffffffffffffffffffffffffffffff168152602001600081526020016000815260200160008152602001600081526020016000151581525090565b5b80821115611421576000816000905550600101611409565b5090565b600061143861143384611de1565b611dbc565b9050808382526020820190508285602086028201111561145757600080fd5b60005b85811015611487578161146d88826115ca565b84526020840193506020830192505060018101905061145a565b5050509392505050565b60006114a461149f84611e0d565b611dbc565b9050828152602081018484840111156114bc57600080fd5b6114c7848285611fd6565b509392505050565b60006114e26114dd84611e3e565b611dbc565b9050828152602081018484840111156114fa57600080fd5b611505848285611fd6565b509392505050565b60008135905061151c81612281565b92915050565b600082601f83011261153357600080fd5b8135611543848260208601611425565b91505092915050565b60008151905061155b81612298565b92915050565b600081359050611570816122af565b92915050565b600082601f83011261158757600080fd5b8135611597848260208601611491565b91505092915050565b600082601f8301126115b157600080fd5b81356115c18482602086016114cf565b91505092915050565b6000813590506115d9816122c6565b92915050565b6000602082840312156115f157600080fd5b60006115ff8482850161150d565b91505092915050565b600080600080600060a0868803121561162057600080fd5b600061162e8882890161150d565b955050602061163f8882890161150d565b945050604086013567ffffffffffffffff81111561165c57600080fd5b61166888828901611522565b935050606086013567ffffffffffffffff81111561168557600080fd5b61169188828901611522565b925050608086013567ffffffffffffffff8111156116ae57600080fd5b6116ba88828901611576565b9150509295509295909350565b600080600080600060a086880312156116df57600080fd5b60006116ed8882890161150d565b95505060206116fe8882890161150d565b945050604061170f888289016115ca565b9350506060611720888289016115ca565b925050608086013567ffffffffffffffff81111561173d57600080fd5b61174988828901611576565b9150509295509295909350565b60006020828403121561176857600080fd5b60006117768482850161154c565b91505092915050565b60006020828403121561179157600080fd5b600061179f84828501611561565b91505092915050565b600080600080600060a086880312156117c057600080fd5b600086013567ffffffffffffffff8111156117da57600080fd5b6117e6888289016115a0565b95505060206117f78882890161150d565b9450506040611808888289016115ca565b9350506060611819888289016115ca565b925050608061182a888289016115ca565b9150509295509295909350565b60006020828403121561184957600080fd5b6000611857848285016115ca565b91505092915050565b600061186c8383611b1d565b60208301905092915050565b61188181611fa0565b82525050565b61189081611f2c565b82525050565b61189f81611f1a565b82525050565b6118ae81611f1a565b82525050565b60006118bf82611e7f565b6118c98185611ea2565b93506118d483611e6f565b8060005b838110156119055781516118ec8882611860565b97506118f783611e95565b9250506001810190506118d8565b5085935050505092915050565b61191b81611f3e565b82525050565b61192a81611f3e565b82525050565b61193981611f4a565b82525050565b600061194a82611e8a565b6119548185611ec4565b9350611964818560208601611fe5565b61196d81612151565b840191505092915050565b6000611985600283611ed5565b915061199082612162565b602082019050919050565b60006119a8600283611ed5565b91506119b38261218b565b602082019050919050565b60006119cb600283611ed5565b91506119d6826121b4565b602082019050919050565b60006119ee600283611eb3565b91506119f9826121dd565b602082019050919050565b6000611a11600283611ed5565b9150611a1c82612206565b602082019050919050565b6000611a34600283611ed5565b9150611a3f8261222f565b602082019050919050565b6000611a57600283611ed5565b9150611a6282612258565b602082019050919050565b600061010083016000830151611a866000860182611887565b5060208301518482036020860152611a9e828261193f565b9150506040830151611ab36040860182611896565b506060830151611ac66060860182611b1d565b506080830151611ad96080860182611b1d565b5060a0830151611aec60a0860182611b1d565b5060c0830151611aff60c0860182611b1d565b5060e0830151611b1260e0860182611912565b508091505092915050565b611b2681611f96565b82525050565b611b3581611f96565b82525050565b6000604082019050611b506000830185611878565b611b5d6020830184611b2c565b9392505050565b6000606082019050611b7960008301866118a5565b611b866020830185611878565b611b936040830184611b2c565b949350505050565b600060a082019050611bb060008301876118a5565b611bbd6020830186611878565b611bca6040830185611b2c565b611bd76060830184611b2c565b8181036080830152611be8816119e1565b905095945050505050565b6000606082019050611c0860008301866118a5565b611c1560208301856118a5565b611c226040830184611b2c565b949350505050565b600060a082019050611c3f60008301876118a5565b611c4c60208301866118a5565b611c596040830185611b2c565b611c666060830184611b2c565b8181036080830152611c77816119e1565b905095945050505050565b60006020820190508181036000830152611c9c81846118b4565b905092915050565b6000602082019050611cb96000830184611921565b92915050565b6000602082019050611cd46000830184611930565b92915050565b60006020820190508181036000830152611cf381611978565b9050919050565b60006020820190508181036000830152611d138161199b565b9050919050565b60006020820190508181036000830152611d33816119be565b9050919050565b60006020820190508181036000830152611d5381611a04565b9050919050565b60006020820190508181036000830152611d7381611a27565b9050919050565b60006020820190508181036000830152611d9381611a4a565b9050919050565b60006020820190508181036000830152611db48184611a6d565b905092915050565b6000611dc6611dd7565b9050611dd2828261204a565b919050565b6000604051905090565b600067ffffffffffffffff821115611dfc57611dfb612122565b5b602082029050602081019050919050565b600067ffffffffffffffff821115611e2857611e27612122565b5b611e3182612151565b9050602081019050919050565b600067ffffffffffffffff821115611e5957611e58612122565b5b611e6282612151565b9050602081019050919050565b6000819050602082019050919050565b600081519050919050565b600081519050919050565b6000602082019050919050565b600082825260208201905092915050565b600082825260208201905092915050565b600082825260208201905092915050565b600082825260208201905092915050565b6000611ef182611f96565b9150611efc83611f96565b925082821015611f0f57611f0e6120c4565b5b828203905092915050565b6000611f2582611f76565b9050919050565b6000611f3782611f76565b9050919050565b60008115159050919050565b60007fffffffff0000000000000000000000000000000000000000000000000000000082169050919050565b600073ffffffffffffffffffffffffffffffffffffffff82169050919050565b6000819050919050565b6000611fab82611fb2565b9050919050565b6000611fbd82611fc4565b9050919050565b6000611fcf82611f76565b9050919050565b82818337600083830152505050565b60005b83811015612003578082015181840152602081019050611fe8565b83811115612012576000848401525b50505050565b6000600282049050600182168061203057607f821691505b60208210811415612044576120436120f3565b5b50919050565b61205382612151565b810181811067ffffffffffffffff8211171561207257612071612122565b5b80604052505050565b600061208682611f96565b91507fffffffffffffffffffffffffffffffffffffffffffffffffffffffffffffffff8214156120b9576120b86120c4565b5b600182019050919050565b7f4e487b7100000000000000000000000000000000000000000000000000000000600052601160045260246000fd5b7f4e487b7100000000000000000000000000000000000000000000000000000000600052602260045260246000fd5b7f4e487b7100000000000000000000000000000000000000000000000000000000600052604160045260246000fd5b6000601f19601f8301169050919050565b7f3036000000000000000000000000000000000000000000000000000000000000600082015250565b7f3034000000000000000000000000000000000000000000000000000000000000600082015250565b7f3031000000000000000000000000000000000000000000000000000000000000600082015250565b7f3078000000000000000000000000000000000000000000000000000000000000600082015250565b7f3033000000000000000000000000000000000000000000000000000000000000600082015250565b7f3035000000000000000000000000000000000000000000000000000000000000600082015250565b7f3032000000000000000000000000000000000000000000000000000000000000600082015250565b61228a81611f1a565b811461229557600080fd5b50565b6122a181611f3e565b81146122ac57600080fd5b50565b6122b881611f4a565b81146122c357600080fd5b50565b6122cf81611f96565b81146122da57600080fd5b5056fea2646970667358221220ba831f269d48d90c1ddf09ff919ce5c70c3a440c43afcef590c430490669f2a264736f6c63430008020033",
  "linkReferences": {},
  "deployedLinkReferences": {}
}