{
  "_format": "hh-sol-artifact-1",
  "contractName": "Penguins",
  "sourceName": "contracts/tokens/Penguins_1155.sol",
  "abi": [
    {
      "inputs": [],
      "stateMutability": "nonpayable",
      "type": "constructor"
    },
    {
      "anonymous": false,
      "inputs": [
        {
          "indexed": true,
          "internalType": "address",
          "name": "account",
          "type": "address"
        },
        {
          "indexed": true,
          "internalType": "address",
          "name": "operator",
          "type": "address"
        },
        {
          "indexed": false,
          "internalType": "bool",
          "name": "approved",
          "type": "bool"
        }
      ],
      "name": "ApprovalForAll",
      "type": "event"
    },
    {
      "anonymous": false,
      "inputs": [
        {
          "indexed": true,
          "internalType": "address",
          "name": "previousOwner",
          "type": "address"
        },
        {
          "indexed": true,
          "internalType": "address",
          "name": "newOwner",
          "type": "address"
        }
      ],
      "name": "OwnershipTransferred",
      "type": "event"
    },
    {
      "anonymous": false,
      "inputs": [
        {
          "indexed": true,
          "internalType": "address",
          "name": "operator",
          "type": "address"
        },
        {
          "indexed": true,
          "internalType": "address",
          "name": "from",
          "type": "address"
        },
        {
          "indexed": true,
          "internalType": "address",
          "name": "to",
          "type": "address"
        },
        {
          "indexed": false,
          "internalType": "uint256[]",
          "name": "ids",
          "type": "uint256[]"
        },
        {
          "indexed": false,
          "internalType": "uint256[]",
          "name": "values",
          "type": "uint256[]"
        }
      ],
      "name": "TransferBatch",
      "type": "event"
    },
    {
      "anonymous": false,
      "inputs": [
        {
          "indexed": true,
          "internalType": "address",
          "name": "operator",
          "type": "address"
        },
        {
          "indexed": true,
          "internalType": "address",
          "name": "from",
          "type": "address"
        },
        {
          "indexed": true,
          "internalType": "address",
          "name": "to",
          "type": "address"
        },
        {
          "indexed": false,
          "internalType": "uint256",
          "name": "id",
          "type": "uint256"
        },
        {
          "indexed": false,
          "internalType": "uint256",
          "name": "value",
          "type": "uint256"
        }
      ],
      "name": "TransferSingle",
      "type": "event"
    },
    {
      "anonymous": false,
      "inputs": [
        {
          "indexed": false,
          "internalType": "string",
          "name": "value",
          "type": "string"
        },
        {
          "indexed": true,
          "internalType": "uint256",
          "name": "id",
          "type": "uint256"
        }
      ],
      "name": "URI",
      "type": "event"
    },
    {
      "inputs": [
        {
          "internalType": "address",
          "name": "account",
          "type": "address"
        },
        {
          "internalType": "uint256",
          "name": "id",
          "type": "uint256"
        }
      ],
      "name": "balanceOf",
      "outputs": [
        {
          "internalType": "uint256",
          "name": "",
          "type": "uint256"
        }
      ],
      "stateMutability": "view",
      "type": "function"
    },
    {
      "inputs": [
        {
          "internalType": "address[]",
          "name": "accounts",
          "type": "address[]"
        },
        {
          "internalType": "uint256[]",
          "name": "ids",
          "type": "uint256[]"
        }
      ],
      "name": "balanceOfBatch",
      "outputs": [
        {
          "internalType": "uint256[]",
          "name": "",
          "type": "uint256[]"
        }
      ],
      "stateMutability": "view",
      "type": "function"
    },
    {
      "inputs": [
        {
          "internalType": "address",
          "name": "account",
          "type": "address"
        },
        {
          "internalType": "address",
          "name": "operator",
          "type": "address"
        }
      ],
      "name": "isApprovedForAll",
      "outputs": [
        {
          "internalType": "bool",
          "name": "",
          "type": "bool"
        }
      ],
      "stateMutability": "view",
      "type": "function"
    },
    {
      "inputs": [
        {
          "internalType": "address",
          "name": "account",
          "type": "address"
        },
        {
          "internalType": "uint256",
          "name": "id",
          "type": "uint256"
        },
        {
          "internalType": "uint256",
          "name": "amount",
          "type": "uint256"
        },
        {
          "internalType": "bytes",
          "name": "data",
          "type": "bytes"
        }
      ],
      "name": "mint",
      "outputs": [],
      "stateMutability": "nonpayable",
      "type": "function"
    },
    {
      "inputs": [
        {
          "internalType": "address",
          "name": "to",
          "type": "address"
        },
        {
          "internalType": "uint256[]",
          "name": "ids",
          "type": "uint256[]"
        },
        {
          "internalType": "uint256[]",
          "name": "amounts",
          "type": "uint256[]"
        },
        {
          "internalType": "bytes",
          "name": "data",
          "type": "bytes"
        }
      ],
      "name": "mintBatch",
      "outputs": [],
      "stateMutability": "nonpayable",
      "type": "function"
    },
    {
      "inputs": [],
      "name": "owner",
      "outputs": [
        {
          "internalType": "address",
          "name": "",
          "type": "address"
        }
      ],
      "stateMutability": "view",
      "type": "function"
    },
    {
      "inputs": [],
      "name": "renounceOwnership",
      "outputs": [],
      "stateMutability": "nonpayable",
      "type": "function"
    },
    {
      "inputs": [
        {
          "internalType": "address",
          "name": "from",
          "type": "address"
        },
        {
          "internalType": "address",
          "name": "to",
          "type": "address"
        },
        {
          "internalType": "uint256[]",
          "name": "ids",
          "type": "uint256[]"
        },
        {
          "internalType": "uint256[]",
          "name": "amounts",
          "type": "uint256[]"
        },
        {
          "internalType": "bytes",
          "name": "data",
          "type": "bytes"
        }
      ],
      "name": "safeBatchTransferFrom",
      "outputs": [],
      "stateMutability": "nonpayable",
      "type": "function"
    },
    {
      "inputs": [
        {
          "internalType": "address",
          "name": "from",
          "type": "address"
        },
        {
          "internalType": "address",
          "name": "to",
          "type": "address"
        },
        {
          "internalType": "uint256",
          "name": "id",
          "type": "uint256"
        },
        {
          "internalType": "uint256",
          "name": "amount",
          "type": "uint256"
        },
        {
          "internalType": "bytes",
          "name": "data",
          "type": "bytes"
        }
      ],
      "name": "safeTransferFrom",
      "outputs": [],
      "stateMutability": "nonpayable",
      "type": "function"
    },
    {
      "inputs": [
        {
          "internalType": "address",
          "name": "operator",
          "type": "address"
        },
        {
          "internalType": "bool",
          "name": "approved",
          "type": "bool"
        }
      ],
      "name": "setApprovalForAll",
      "outputs": [],
      "stateMutability": "nonpayable",
      "type": "function"
    },
    {
      "inputs": [
        {
          "internalType": "string",
          "name": "newuri",
          "type": "string"
        }
      ],
      "name": "setURI",
      "outputs": [],
      "stateMutability": "nonpayable",
      "type": "function"
    },
    {
      "inputs": [
        {
          "internalType": "bytes4",
          "name": "interfaceId",
          "type": "bytes4"
        }
      ],
      "name": "supportsInterface",
      "outputs": [
        {
          "internalType": "bool",
          "name": "",
          "type": "bool"
        }
      ],
      "stateMutability": "view",
      "type": "function"
    },
    {
      "inputs": [
        {
          "internalType": "address",
          "name": "newOwner",
          "type": "address"
        }
      ],
      "name": "transferOwnership",
      "outputs": [],
      "stateMutability": "nonpayable",
      "type": "function"
    },
    {
      "inputs": [
        {
          "internalType": "uint256",
          "name": "",
          "type": "uint256"
        }
      ],
      "name": "uri",
      "outputs": [
        {
          "internalType": "string",
          "name": "",
          "type": "string"
        }
      ],
      "stateMutability": "view",
      "type": "function"
    }
  ],
  "bytecode": "0x60806040523480156200001157600080fd5b506040518060200160405280600081525062000033816200005a60201b60201c565b5062000054620000486200007660201b60201c565b6200007e60201b60201c565b62000259565b80600290805190602001906200007292919062000144565b5050565b600033905090565b6000600360009054906101000a900473ffffffffffffffffffffffffffffffffffffffff16905081600360006101000a81548173ffffffffffffffffffffffffffffffffffffffff021916908373ffffffffffffffffffffffffffffffffffffffff1602179055508173ffffffffffffffffffffffffffffffffffffffff168173ffffffffffffffffffffffffffffffffffffffff167f8be0079c531659141344cd1fd0a4f28419497f9722a3daafe3b4186f6b6457e060405160405180910390a35050565b8280546200015290620001f4565b90600052602060002090601f016020900481019282620001765760008555620001c2565b82601f106200019157805160ff1916838001178555620001c2565b82800160010185558215620001c2579182015b82811115620001c1578251825591602001919060010190620001a4565b5b509050620001d19190620001d5565b5090565b5b80821115620001f0576000816000905550600101620001d6565b5090565b600060028204905060018216806200020d57607f821691505b602082108114156200022457620002236200022a565b5b50919050565b7f4e487b7100000000000000000000000000000000000000000000000000000000600052602260045260246000fd5b61332d80620002696000396000f3fe608060405234801561001057600080fd5b50600436106100e95760003560e01c8063715018a61161008c578063a22cb46511610066578063a22cb46514610246578063e985e9c514610262578063f242432a14610292578063f2fde38b146102ae576100e9565b8063715018a614610202578063731133e91461020c5780638da5cb5b14610228576100e9565b80630e89341c116100c85780630e89341c1461016a5780631f7fdffa1461019a5780632eb2c2d6146101b65780634e1273f4146101d2576100e9565b8062fdd58e146100ee57806301ffc9a71461011e57806302fe53051461014e575b600080fd5b610108600480360381019061010391906121be565b6102ca565b60405161011591906129c7565b60405180910390f35b610138600480360381019061013391906122f9565b610393565b60405161014591906127ea565b60405180910390f35b61016860048036038101906101639190612353565b610475565b005b610184600480360381019061017f919061239c565b6104fd565b6040516101919190612805565b60405180910390f35b6101b460048036038101906101af91906120c3565b610591565b005b6101d060048036038101906101cb9190611f5d565b61061f565b005b6101ec60048036038101906101e79190612281565b6106c0565b6040516101f99190612791565b60405180910390f35b61020a6107d9565b005b610226600480360381019061022191906121fe565b610861565b005b6102306108ef565b60405161023d91906126b4565b60405180910390f35b610260600480360381019061025b919061217e565b610919565b005b61027c60048036038101906102779190611f1d565b61092f565b60405161028991906127ea565b60405180910390f35b6102ac60048036038101906102a7919061202c565b6109c3565b005b6102c860048036038101906102c39190611ef0565b610a64565b005b60008073ffffffffffffffffffffffffffffffffffffffff168373ffffffffffffffffffffffffffffffffffffffff16141561033b576040517f08c379a000000000000000000000000000000000000000000000000000000000815260040161033290612867565b60405180910390fd5b60008083815260200190815260200160002060008473ffffffffffffffffffffffffffffffffffffffff1673ffffffffffffffffffffffffffffffffffffffff16815260200190815260200160002054905092915050565b60007fd9b67a26000000000000000000000000000000000000000000000000000000007bffffffffffffffffffffffffffffffffffffffffffffffffffffffff1916827bffffffffffffffffffffffffffffffffffffffffffffffffffffffff1916148061045e57507f0e89341c000000000000000000000000000000000000000000000000000000007bffffffffffffffffffffffffffffffffffffffffffffffffffffffff1916827bffffffffffffffffffffffffffffffffffffffffffffffffffffffff1916145b8061046e575061046d82610b5c565b5b9050919050565b61047d610bc6565b73ffffffffffffffffffffffffffffffffffffffff1661049b6108ef565b73ffffffffffffffffffffffffffffffffffffffff16146104f1576040517f08c379a00000000000000000000000000000000000000000000000000000000081526004016104e890612927565b60405180910390fd5b6104fa81610bce565b50565b60606002805461050c90612c67565b80601f016020809104026020016040519081016040528092919081815260200182805461053890612c67565b80156105855780601f1061055a57610100808354040283529160200191610585565b820191906000526020600020905b81548152906001019060200180831161056857829003601f168201915b50505050509050919050565b610599610bc6565b73ffffffffffffffffffffffffffffffffffffffff166105b76108ef565b73ffffffffffffffffffffffffffffffffffffffff161461060d576040517f08c379a000000000000000000000000000000000000000000000000000000000815260040161060490612927565b60405180910390fd5b61061984848484610be8565b50505050565b610627610bc6565b73ffffffffffffffffffffffffffffffffffffffff168573ffffffffffffffffffffffffffffffffffffffff16148061066d575061066c85610667610bc6565b61092f565b5b6106ac576040517f08c379a00000000000000000000000000000000000000000000000000000000081526004016106a3906128e7565b60405180910390fd5b6106b98585858585610e06565b5050505050565b60608151835114610706576040517f08c379a00000000000000000000000000000000000000000000000000000000081526004016106fd90612967565b60405180910390fd5b6000835167ffffffffffffffff81111561072357610722612da0565b5b6040519080825280602002602001820160405280156107515781602001602082028036833780820191505090505b50905060005b84518110156107ce5761079e85828151811061077657610775612d71565b5b602002602001015185838151811061079157610790612d71565b5b60200260200101516102ca565b8282815181106107b1576107b0612d71565b5b602002602001018181525050806107c790612cca565b9050610757565b508091505092915050565b6107e1610bc6565b73ffffffffffffffffffffffffffffffffffffffff166107ff6108ef565b73ffffffffffffffffffffffffffffffffffffffff1614610855576040517f08c379a000000000000000000000000000000000000000000000000000000000815260040161084c90612927565b60405180910390fd5b61085f600061111a565b565b610869610bc6565b73ffffffffffffffffffffffffffffffffffffffff166108876108ef565b73ffffffffffffffffffffffffffffffffffffffff16146108dd576040517f08c379a00000000000000000000000000000000000000000000000000000000081526004016108d490612927565b60405180910390fd5b6108e9848484846111e0565b50505050565b6000600360009054906101000a900473ffffffffffffffffffffffffffffffffffffffff16905090565b61092b610924610bc6565b8383611376565b5050565b6000600160008473ffffffffffffffffffffffffffffffffffffffff1673ffffffffffffffffffffffffffffffffffffffff16815260200190815260200160002060008373ffffffffffffffffffffffffffffffffffffffff1673ffffffffffffffffffffffffffffffffffffffff16815260200190815260200160002060009054906101000a900460ff16905092915050565b6109cb610bc6565b73ffffffffffffffffffffffffffffffffffffffff168573ffffffffffffffffffffffffffffffffffffffff161480610a115750610a1085610a0b610bc6565b61092f565b5b610a50576040517f08c379a0000000000000000000000000000000000000000000000000000000008152600401610a47906128a7565b60405180910390fd5b610a5d85858585856114e3565b5050505050565b610a6c610bc6565b73ffffffffffffffffffffffffffffffffffffffff16610a8a6108ef565b73ffffffffffffffffffffffffffffffffffffffff1614610ae0576040517f08c379a0000000000000000000000000000000000000000000000000000000008152600401610ad790612927565b60405180910390fd5b600073ffffffffffffffffffffffffffffffffffffffff168173ffffffffffffffffffffffffffffffffffffffff161415610b50576040517f08c379a0000000000000000000000000000000000000000000000000000000008152600401610b4790612887565b60405180910390fd5b610b598161111a565b50565b60007f01ffc9a7000000000000000000000000000000000000000000000000000000007bffffffffffffffffffffffffffffffffffffffffffffffffffffffff1916827bffffffffffffffffffffffffffffffffffffffffffffffffffffffff1916149050919050565b600033905090565b8060029080519060200190610be4929190611bc8565b5050565b600073ffffffffffffffffffffffffffffffffffffffff168473ffffffffffffffffffffffffffffffffffffffff161415610c58576040517f08c379a0000000000000000000000000000000000000000000000000000000008152600401610c4f906129a7565b60405180910390fd5b8151835114610c9c576040517f08c379a0000000000000000000000000000000000000000000000000000000008152600401610c9390612987565b60405180910390fd5b6000610ca6610bc6565b9050610cb781600087878787611765565b60005b8451811015610d7057838181518110610cd657610cd5612d71565b5b6020026020010151600080878481518110610cf457610cf3612d71565b5b6020026020010151815260200190815260200160002060008873ffffffffffffffffffffffffffffffffffffffff1673ffffffffffffffffffffffffffffffffffffffff1681526020019081526020016000206000828254610d569190612b5b565b925050819055508080610d6890612cca565b915050610cba565b508473ffffffffffffffffffffffffffffffffffffffff16600073ffffffffffffffffffffffffffffffffffffffff168273ffffffffffffffffffffffffffffffffffffffff167f4a39dc06d4c0dbc64b70af90fd698a233a518aa5d07e595d983b8c0526c8f7fb8787604051610de89291906127b3565b60405180910390a4610dff8160008787878761176d565b5050505050565b8151835114610e4a576040517f08c379a0000000000000000000000000000000000000000000000000000000008152600401610e4190612987565b60405180910390fd5b600073ffffffffffffffffffffffffffffffffffffffff168473ffffffffffffffffffffffffffffffffffffffff161415610eba576040517f08c379a0000000000000000000000000000000000000000000000000000000008152600401610eb1906128c7565b60405180910390fd5b6000610ec4610bc6565b9050610ed4818787878787611765565b60005b8451811015611085576000858281518110610ef557610ef4612d71565b5b602002602001015190506000858381518110610f1457610f13612d71565b5b60200260200101519050600080600084815260200190815260200160002060008b73ffffffffffffffffffffffffffffffffffffffff1673ffffffffffffffffffffffffffffffffffffffff16815260200190815260200160002054905081811015610fb5576040517f08c379a0000000000000000000000000000000000000000000000000000000008152600401610fac90612907565b60405180910390fd5b81810360008085815260200190815260200160002060008c73ffffffffffffffffffffffffffffffffffffffff1673ffffffffffffffffffffffffffffffffffffffff168152602001908152602001600020819055508160008085815260200190815260200160002060008b73ffffffffffffffffffffffffffffffffffffffff1673ffffffffffffffffffffffffffffffffffffffff168152602001908152602001600020600082825461106a9190612b5b565b925050819055505050508061107e90612cca565b9050610ed7565b508473ffffffffffffffffffffffffffffffffffffffff168673ffffffffffffffffffffffffffffffffffffffff168273ffffffffffffffffffffffffffffffffffffffff167f4a39dc06d4c0dbc64b70af90fd698a233a518aa5d07e595d983b8c0526c8f7fb87876040516110fc9291906127b3565b60405180910390a461111281878787878761176d565b505050505050565b6000600360009054906101000a900473ffffffffffffffffffffffffffffffffffffffff16905081600360006101000a81548173ffffffffffffffffffffffffffffffffffffffff021916908373ffffffffffffffffffffffffffffffffffffffff1602179055508173ffffffffffffffffffffffffffffffffffffffff168173ffffffffffffffffffffffffffffffffffffffff167f8be0079c531659141344cd1fd0a4f28419497f9722a3daafe3b4186f6b6457e060405160405180910390a35050565b600073ffffffffffffffffffffffffffffffffffffffff168473ffffffffffffffffffffffffffffffffffffffff161415611250576040517f08c379a0000000000000000000000000000000000000000000000000000000008152600401611247906129a7565b60405180910390fd5b600061125a610bc6565b905061127b8160008761126c88611954565b61127588611954565b87611765565b8260008086815260200190815260200160002060008773ffffffffffffffffffffffffffffffffffffffff1673ffffffffffffffffffffffffffffffffffffffff16815260200190815260200160002060008282546112da9190612b5b565b925050819055508473ffffffffffffffffffffffffffffffffffffffff16600073ffffffffffffffffffffffffffffffffffffffff168273ffffffffffffffffffffffffffffffffffffffff167fc3d58168c5ae7397731d063d5bbf3d657854427343f4c083240f7aacaa2d0f6287876040516113589291906129e2565b60405180910390a461136f816000878787876119ce565b5050505050565b8173ffffffffffffffffffffffffffffffffffffffff168373ffffffffffffffffffffffffffffffffffffffff1614156113e5576040517f08c379a00000000000000000000000000000000000000000000000000000000081526004016113dc90612947565b60405180910390fd5b80600160008573ffffffffffffffffffffffffffffffffffffffff1673ffffffffffffffffffffffffffffffffffffffff16815260200190815260200160002060008473ffffffffffffffffffffffffffffffffffffffff1673ffffffffffffffffffffffffffffffffffffffff16815260200190815260200160002060006101000a81548160ff0219169083151502179055508173ffffffffffffffffffffffffffffffffffffffff168373ffffffffffffffffffffffffffffffffffffffff167f17307eab39ab6107e8899845ad3d59bd9653f200f220920489ca2b5937696c31836040516114d691906127ea565b60405180910390a3505050565b600073ffffffffffffffffffffffffffffffffffffffff168473ffffffffffffffffffffffffffffffffffffffff161415611553576040517f08c379a000000000000000000000000000000000000000000000000000000000815260040161154a906128c7565b60405180910390fd5b600061155d610bc6565b905061157d81878761156e88611954565b61157788611954565b87611765565b600080600086815260200190815260200160002060008873ffffffffffffffffffffffffffffffffffffffff1673ffffffffffffffffffffffffffffffffffffffff16815260200190815260200160002054905083811015611614576040517f08c379a000000000000000000000000000000000000000000000000000000000815260040161160b90612907565b60405180910390fd5b83810360008087815260200190815260200160002060008973ffffffffffffffffffffffffffffffffffffffff1673ffffffffffffffffffffffffffffffffffffffff168152602001908152602001600020819055508360008087815260200190815260200160002060008873ffffffffffffffffffffffffffffffffffffffff1673ffffffffffffffffffffffffffffffffffffffff16815260200190815260200160002060008282546116c99190612b5b565b925050819055508573ffffffffffffffffffffffffffffffffffffffff168773ffffffffffffffffffffffffffffffffffffffff168373ffffffffffffffffffffffffffffffffffffffff167fc3d58168c5ae7397731d063d5bbf3d657854427343f4c083240f7aacaa2d0f6288886040516117469291906129e2565b60405180910390a461175c8288888888886119ce565b50505050505050565b505050505050565b61178c8473ffffffffffffffffffffffffffffffffffffffff16611bb5565b1561194c578373ffffffffffffffffffffffffffffffffffffffff1663bc197c8187878686866040518663ffffffff1660e01b81526004016117d29594939291906126cf565b602060405180830381600087803b1580156117ec57600080fd5b505af192505050801561181d57506040513d601f19601f8201168201806040525081019061181a9190612326565b60015b6118c357611829612dcf565b806308c379a01415611886575061183e613205565b806118495750611888565b806040517f08c379a000000000000000000000000000000000000000000000000000000000815260040161187d9190612805565b60405180910390fd5b505b6040517f08c379a00000000000000000000000000000000000000000000000000000000081526004016118ba90612827565b60405180910390fd5b63bc197c8160e01b7bffffffffffffffffffffffffffffffffffffffffffffffffffffffff1916817bffffffffffffffffffffffffffffffffffffffffffffffffffffffff19161461194a576040517f08c379a000000000000000000000000000000000000000000000000000000000815260040161194190612847565b60405180910390fd5b505b505050505050565b60606000600167ffffffffffffffff81111561197357611972612da0565b5b6040519080825280602002602001820160405280156119a15781602001602082028036833780820191505090505b50905082816000815181106119b9576119b8612d71565b5b60200260200101818152505080915050919050565b6119ed8473ffffffffffffffffffffffffffffffffffffffff16611bb5565b15611bad578373ffffffffffffffffffffffffffffffffffffffff1663f23a6e6187878686866040518663ffffffff1660e01b8152600401611a33959493929190612737565b602060405180830381600087803b158015611a4d57600080fd5b505af1925050508015611a7e57506040513d601f19601f82011682018060405250810190611a7b9190612326565b60015b611b2457611a8a612dcf565b806308c379a01415611ae75750611a9f613205565b80611aaa5750611ae9565b806040517f08c379a0000000000000000000000000000000000000000000000000000000008152600401611ade9190612805565b60405180910390fd5b505b6040517f08c379a0000000000000000000000000000000000000000000000000000000008152600401611b1b90612827565b60405180910390fd5b63f23a6e6160e01b7bffffffffffffffffffffffffffffffffffffffffffffffffffffffff1916817bffffffffffffffffffffffffffffffffffffffffffffffffffffffff191614611bab576040517f08c379a0000000000000000000000000000000000000000000000000000000008152600401611ba290612847565b60405180910390fd5b505b505050505050565b600080823b905060008111915050919050565b828054611bd490612c67565b90600052602060002090601f016020900481019282611bf65760008555611c3d565b82601f10611c0f57805160ff1916838001178555611c3d565b82800160010185558215611c3d579182015b82811115611c3c578251825591602001919060010190611c21565b5b509050611c4a9190611c4e565b5090565b5b80821115611c67576000816000905550600101611c4f565b5090565b6000611c7e611c7984612a30565b612a0b565b90508083825260208201905082856020860282011115611ca157611ca0612df6565b5b60005b85811015611cd15781611cb78882611dcf565b845260208401935060208301925050600181019050611ca4565b5050509392505050565b6000611cee611ce984612a5c565b612a0b565b90508083825260208201905082856020860282011115611d1157611d10612df6565b5b60005b85811015611d415781611d278882611edb565b845260208401935060208301925050600181019050611d14565b5050509392505050565b6000611d5e611d5984612a88565b612a0b565b905082815260208101848484011115611d7a57611d79612dfb565b5b611d85848285612c25565b509392505050565b6000611da0611d9b84612ab9565b612a0b565b905082815260208101848484011115611dbc57611dbb612dfb565b5b611dc7848285612c25565b509392505050565b600081359050611dde8161329b565b92915050565b600082601f830112611df957611df8612df1565b5b8135611e09848260208601611c6b565b91505092915050565b600082601f830112611e2757611e26612df1565b5b8135611e37848260208601611cdb565b91505092915050565b600081359050611e4f816132b2565b92915050565b600081359050611e64816132c9565b92915050565b600081519050611e79816132c9565b92915050565b600082601f830112611e9457611e93612df1565b5b8135611ea4848260208601611d4b565b91505092915050565b600082601f830112611ec257611ec1612df1565b5b8135611ed2848260208601611d8d565b91505092915050565b600081359050611eea816132e0565b92915050565b600060208284031215611f0657611f05612e05565b5b6000611f1484828501611dcf565b91505092915050565b60008060408385031215611f3457611f33612e05565b5b6000611f4285828601611dcf565b9250506020611f5385828601611dcf565b9150509250929050565b600080600080600060a08688031215611f7957611f78612e05565b5b6000611f8788828901611dcf565b9550506020611f9888828901611dcf565b945050604086013567ffffffffffffffff811115611fb957611fb8612e00565b5b611fc588828901611e12565b935050606086013567ffffffffffffffff811115611fe657611fe5612e00565b5b611ff288828901611e12565b925050608086013567ffffffffffffffff81111561201357612012612e00565b5b61201f88828901611e7f565b9150509295509295909350565b600080600080600060a0868803121561204857612047612e05565b5b600061205688828901611dcf565b955050602061206788828901611dcf565b945050604061207888828901611edb565b935050606061208988828901611edb565b925050608086013567ffffffffffffffff8111156120aa576120a9612e00565b5b6120b688828901611e7f565b9150509295509295909350565b600080600080608085870312156120dd576120dc612e05565b5b60006120eb87828801611dcf565b945050602085013567ffffffffffffffff81111561210c5761210b612e00565b5b61211887828801611e12565b935050604085013567ffffffffffffffff81111561213957612138612e00565b5b61214587828801611e12565b925050606085013567ffffffffffffffff81111561216657612165612e00565b5b61217287828801611e7f565b91505092959194509250565b6000806040838503121561219557612194612e05565b5b60006121a385828601611dcf565b92505060206121b485828601611e40565b9150509250929050565b600080604083850312156121d5576121d4612e05565b5b60006121e385828601611dcf565b92505060206121f485828601611edb565b9150509250929050565b6000806000806080858703121561221857612217612e05565b5b600061222687828801611dcf565b945050602061223787828801611edb565b935050604061224887828801611edb565b925050606085013567ffffffffffffffff81111561226957612268612e00565b5b61227587828801611e7f565b91505092959194509250565b6000806040838503121561229857612297612e05565b5b600083013567ffffffffffffffff8111156122b6576122b5612e00565b5b6122c285828601611de4565b925050602083013567ffffffffffffffff8111156122e3576122e2612e00565b5b6122ef85828601611e12565b9150509250929050565b60006020828403121561230f5761230e612e05565b5b600061231d84828501611e55565b91505092915050565b60006020828403121561233c5761233b612e05565b5b600061234a84828501611e6a565b91505092915050565b60006020828403121561236957612368612e05565b5b600082013567ffffffffffffffff81111561238757612386612e00565b5b61239384828501611ead565b91505092915050565b6000602082840312156123b2576123b1612e05565b5b60006123c084828501611edb565b91505092915050565b60006123d58383612696565b60208301905092915050565b6123ea81612bb1565b82525050565b60006123fb82612afa565b6124058185612b28565b935061241083612aea565b8060005b8381101561244157815161242888826123c9565b975061243383612b1b565b925050600181019050612414565b5085935050505092915050565b61245781612bc3565b82525050565b600061246882612b05565b6124728185612b39565b9350612482818560208601612c34565b61248b81612e0a565b840191505092915050565b60006124a182612b10565b6124ab8185612b4a565b93506124bb818560208601612c34565b6124c481612e0a565b840191505092915050565b60006124dc603483612b4a565b91506124e782612e28565b604082019050919050565b60006124ff602883612b4a565b915061250a82612e77565b604082019050919050565b6000612522602b83612b4a565b915061252d82612ec6565b604082019050919050565b6000612545602683612b4a565b915061255082612f15565b604082019050919050565b6000612568602983612b4a565b915061257382612f64565b604082019050919050565b600061258b602583612b4a565b915061259682612fb3565b604082019050919050565b60006125ae603283612b4a565b91506125b982613002565b604082019050919050565b60006125d1602a83612b4a565b91506125dc82613051565b604082019050919050565b60006125f4602083612b4a565b91506125ff826130a0565b602082019050919050565b6000612617602983612b4a565b9150612622826130c9565b604082019050919050565b600061263a602983612b4a565b915061264582613118565b604082019050919050565b600061265d602883612b4a565b915061266882613167565b604082019050919050565b6000612680602183612b4a565b915061268b826131b6565b604082019050919050565b61269f81612c1b565b82525050565b6126ae81612c1b565b82525050565b60006020820190506126c960008301846123e1565b92915050565b600060a0820190506126e460008301886123e1565b6126f160208301876123e1565b818103604083015261270381866123f0565b9050818103606083015261271781856123f0565b9050818103608083015261272b818461245d565b90509695505050505050565b600060a08201905061274c60008301886123e1565b61275960208301876123e1565b61276660408301866126a5565b61277360608301856126a5565b8181036080830152612785818461245d565b90509695505050505050565b600060208201905081810360008301526127ab81846123f0565b905092915050565b600060408201905081810360008301526127cd81856123f0565b905081810360208301526127e181846123f0565b90509392505050565b60006020820190506127ff600083018461244e565b92915050565b6000602082019050818103600083015261281f8184612496565b905092915050565b60006020820190508181036000830152612840816124cf565b9050919050565b60006020820190508181036000830152612860816124f2565b9050919050565b6000602082019050818103600083015261288081612515565b9050919050565b600060208201905081810360008301526128a081612538565b9050919050565b600060208201905081810360008301526128c08161255b565b9050919050565b600060208201905081810360008301526128e08161257e565b9050919050565b60006020820190508181036000830152612900816125a1565b9050919050565b60006020820190508181036000830152612920816125c4565b9050919050565b60006020820190508181036000830152612940816125e7565b9050919050565b600060208201905081810360008301526129608161260a565b9050919050565b600060208201905081810360008301526129808161262d565b9050919050565b600060208201905081810360008301526129a081612650565b9050919050565b600060208201905081810360008301526129c081612673565b9050919050565b60006020820190506129dc60008301846126a5565b92915050565b60006040820190506129f760008301856126a5565b612a0460208301846126a5565b9392505050565b6000612a15612a26565b9050612a218282612c99565b919050565b6000604051905090565b600067ffffffffffffffff821115612a4b57612a4a612da0565b5b602082029050602081019050919050565b600067ffffffffffffffff821115612a7757612a76612da0565b5b602082029050602081019050919050565b600067ffffffffffffffff821115612aa357612aa2612da0565b5b612aac82612e0a565b9050602081019050919050565b600067ffffffffffffffff821115612ad457612ad3612da0565b5b612add82612e0a565b9050602081019050919050565b6000819050602082019050919050565b600081519050919050565b600081519050919050565b600081519050919050565b6000602082019050919050565b600082825260208201905092915050565b600082825260208201905092915050565b600082825260208201905092915050565b6000612b6682612c1b565b9150612b7183612c1b565b9250827fffffffffffffffffffffffffffffffffffffffffffffffffffffffffffffffff03821115612ba657612ba5612d13565b5b828201905092915050565b6000612bbc82612bfb565b9050919050565b60008115159050919050565b60007fffffffff0000000000000000000000000000000000000000000000000000000082169050919050565b600073ffffffffffffffffffffffffffffffffffffffff82169050919050565b6000819050919050565b82818337600083830152505050565b60005b83811015612c52578082015181840152602081019050612c37565b83811115612c61576000848401525b50505050565b60006002820490506001821680612c7f57607f821691505b60208210811415612c9357612c92612d42565b5b50919050565b612ca282612e0a565b810181811067ffffffffffffffff82111715612cc157612cc0612da0565b5b80604052505050565b6000612cd582612c1b565b91507fffffffffffffffffffffffffffffffffffffffffffffffffffffffffffffffff821415612d0857612d07612d13565b5b600182019050919050565b7f4e487b7100000000000000000000000000000000000000000000000000000000600052601160045260246000fd5b7f4e487b7100000000000000000000000000000000000000000000000000000000600052602260045260246000fd5b7f4e487b7100000000000000000000000000000000000000000000000000000000600052603260045260246000fd5b7f4e487b7100000000000000000000000000000000000000000000000000000000600052604160045260246000fd5b600060033d1115612dee5760046000803e612deb600051612e1b565b90505b90565b600080fd5b600080fd5b600080fd5b600080fd5b600080fd5b6000601f19601f8301169050919050565b60008160e01c9050919050565b7f455243313135353a207472616e7366657220746f206e6f6e204552433131353560008201527f526563656976657220696d706c656d656e746572000000000000000000000000602082015250565b7f455243313135353a204552433131353552656365697665722072656a6563746560008201527f6420746f6b656e73000000000000000000000000000000000000000000000000602082015250565b7f455243313135353a2062616c616e636520717565727920666f7220746865207a60008201527f65726f2061646472657373000000000000000000000000000000000000000000602082015250565b7f4f776e61626c653a206e6577206f776e657220697320746865207a65726f206160008201527f6464726573730000000000000000000000000000000000000000000000000000602082015250565b7f455243313135353a2063616c6c6572206973206e6f74206f776e6572206e6f7260008201527f20617070726f7665640000000000000000000000000000000000000000000000602082015250565b7f455243313135353a207472616e7366657220746f20746865207a65726f20616460008201527f6472657373000000000000000000000000000000000000000000000000000000602082015250565b7f455243313135353a207472616e736665722063616c6c6572206973206e6f742060008201527f6f776e6572206e6f7220617070726f7665640000000000000000000000000000602082015250565b7f455243313135353a20696e73756666696369656e742062616c616e636520666f60008201527f72207472616e7366657200000000000000000000000000000000000000000000602082015250565b7f4f776e61626c653a2063616c6c6572206973206e6f7420746865206f776e6572600082015250565b7f455243313135353a2073657474696e6720617070726f76616c2073746174757360008201527f20666f722073656c660000000000000000000000000000000000000000000000602082015250565b7f455243313135353a206163636f756e747320616e6420696473206c656e67746860008201527f206d69736d617463680000000000000000000000000000000000000000000000602082015250565b7f455243313135353a2069647320616e6420616d6f756e7473206c656e6774682060008201527f6d69736d61746368000000000000000000000000000000000000000000000000602082015250565b7f455243313135353a206d696e7420746f20746865207a65726f2061646472657360008201527f7300000000000000000000000000000000000000000000000000000000000000602082015250565b600060443d101561321557613298565b61321d612a26565b60043d036004823e80513d602482011167ffffffffffffffff82111715613245575050613298565b808201805167ffffffffffffffff8111156132635750505050613298565b80602083010160043d038501811115613280575050505050613298565b61328f82602001850186612c99565b82955050505050505b90565b6132a481612bb1565b81146132af57600080fd5b50565b6132bb81612bc3565b81146132c657600080fd5b50565b6132d281612bcf565b81146132dd57600080fd5b50565b6132e981612c1b565b81146132f457600080fd5b5056fea26469706673582212202c2c4d46c8b01d6da541826ce570c5a13d218247be0535895e7840bd9e3c5b6b64736f6c63430008070033",
  "linkReferences": {},
  "deployedLinkReferences": {}
}