{
  "_format": "hh-sol-artifact-1",
  "contractName": "Sonarika",
  "sourceName": "contracts/tokens/auto_increment/Sonarika_721.sol",
  "abi": [
    {
      "inputs": [],
      "stateMutability": "nonpayable",
      "type": "constructor"
    },
    {
      "anonymous": false,
      "inputs": [
        {
          "indexed": true,
          "internalType": "address",
          "name": "owner",
          "type": "address"
        },
        {
          "indexed": true,
          "internalType": "address",
          "name": "approved",
          "type": "address"
        },
        {
          "indexed": true,
          "internalType": "uint256",
          "name": "tokenId",
          "type": "uint256"
        }
      ],
      "name": "Approval",
      "type": "event"
    },
    {
      "anonymous": false,
      "inputs": [
        {
          "indexed": true,
          "internalType": "address",
          "name": "owner",
          "type": "address"
        },
        {
          "indexed": true,
          "internalType": "address",
          "name": "operator",
          "type": "address"
        },
        {
          "indexed": false,
          "internalType": "bool",
          "name": "approved",
          "type": "bool"
        }
      ],
      "name": "ApprovalForAll",
      "type": "event"
    },
    {
      "anonymous": false,
      "inputs": [
        {
          "indexed": true,
          "internalType": "address",
          "name": "previousOwner",
          "type": "address"
        },
        {
          "indexed": true,
          "internalType": "address",
          "name": "newOwner",
          "type": "address"
        }
      ],
      "name": "OwnershipTransferred",
      "type": "event"
    },
    {
      "anonymous": false,
      "inputs": [
        {
          "indexed": true,
          "internalType": "address",
          "name": "from",
          "type": "address"
        },
        {
          "indexed": true,
          "internalType": "address",
          "name": "to",
          "type": "address"
        },
        {
          "indexed": true,
          "internalType": "uint256",
          "name": "tokenId",
          "type": "uint256"
        }
      ],
      "name": "Transfer",
      "type": "event"
    },
    {
      "inputs": [
        {
          "internalType": "address",
          "name": "to",
          "type": "address"
        },
        {
          "internalType": "uint256",
          "name": "tokenId",
          "type": "uint256"
        }
      ],
      "name": "approve",
      "outputs": [],
      "stateMutability": "nonpayable",
      "type": "function"
    },
    {
      "inputs": [
        {
          "internalType": "address",
          "name": "owner",
          "type": "address"
        }
      ],
      "name": "balanceOf",
      "outputs": [
        {
          "internalType": "uint256",
          "name": "",
          "type": "uint256"
        }
      ],
      "stateMutability": "view",
      "type": "function"
    },
    {
      "inputs": [
        {
          "internalType": "uint256",
          "name": "tokenId",
          "type": "uint256"
        }
      ],
      "name": "getApproved",
      "outputs": [
        {
          "internalType": "address",
          "name": "",
          "type": "address"
        }
      ],
      "stateMutability": "view",
      "type": "function"
    },
    {
      "inputs": [
        {
          "internalType": "address",
          "name": "owner",
          "type": "address"
        },
        {
          "internalType": "address",
          "name": "operator",
          "type": "address"
        }
      ],
      "name": "isApprovedForAll",
      "outputs": [
        {
          "internalType": "bool",
          "name": "",
          "type": "bool"
        }
      ],
      "stateMutability": "view",
      "type": "function"
    },
    {
      "inputs": [],
      "name": "name",
      "outputs": [
        {
          "internalType": "string",
          "name": "",
          "type": "string"
        }
      ],
      "stateMutability": "view",
      "type": "function"
    },
    {
      "inputs": [],
      "name": "owner",
      "outputs": [
        {
          "internalType": "address",
          "name": "",
          "type": "address"
        }
      ],
      "stateMutability": "view",
      "type": "function"
    },
    {
      "inputs": [
        {
          "internalType": "uint256",
          "name": "tokenId",
          "type": "uint256"
        }
      ],
      "name": "ownerOf",
      "outputs": [
        {
          "internalType": "address",
          "name": "",
          "type": "address"
        }
      ],
      "stateMutability": "view",
      "type": "function"
    },
    {
      "inputs": [],
      "name": "renounceOwnership",
      "outputs": [],
      "stateMutability": "nonpayable",
      "type": "function"
    },
    {
      "inputs": [
        {
          "internalType": "address",
          "name": "to",
          "type": "address"
        }
      ],
      "name": "safeMint",
      "outputs": [],
      "stateMutability": "nonpayable",
      "type": "function"
    },
    {
      "inputs": [
        {
          "internalType": "address",
          "name": "from",
          "type": "address"
        },
        {
          "internalType": "address",
          "name": "to",
          "type": "address"
        },
        {
          "internalType": "uint256",
          "name": "tokenId",
          "type": "uint256"
        }
      ],
      "name": "safeTransferFrom",
      "outputs": [],
      "stateMutability": "nonpayable",
      "type": "function"
    },
    {
      "inputs": [
        {
          "internalType": "address",
          "name": "from",
          "type": "address"
        },
        {
          "internalType": "address",
          "name": "to",
          "type": "address"
        },
        {
          "internalType": "uint256",
          "name": "tokenId",
          "type": "uint256"
        },
        {
          "internalType": "bytes",
          "name": "_data",
          "type": "bytes"
        }
      ],
      "name": "safeTransferFrom",
      "outputs": [],
      "stateMutability": "nonpayable",
      "type": "function"
    },
    {
      "inputs": [
        {
          "internalType": "address",
          "name": "operator",
          "type": "address"
        },
        {
          "internalType": "bool",
          "name": "approved",
          "type": "bool"
        }
      ],
      "name": "setApprovalForAll",
      "outputs": [],
      "stateMutability": "nonpayable",
      "type": "function"
    },
    {
      "inputs": [
        {
          "internalType": "bytes4",
          "name": "interfaceId",
          "type": "bytes4"
        }
      ],
      "name": "supportsInterface",
      "outputs": [
        {
          "internalType": "bool",
          "name": "",
          "type": "bool"
        }
      ],
      "stateMutability": "view",
      "type": "function"
    },
    {
      "inputs": [],
      "name": "symbol",
      "outputs": [
        {
          "internalType": "string",
          "name": "",
          "type": "string"
        }
      ],
      "stateMutability": "view",
      "type": "function"
    },
    {
      "inputs": [
        {
          "internalType": "uint256",
          "name": "tokenId",
          "type": "uint256"
        }
      ],
      "name": "tokenURI",
      "outputs": [
        {
          "internalType": "string",
          "name": "",
          "type": "string"
        }
      ],
      "stateMutability": "view",
      "type": "function"
    },
    {
      "inputs": [
        {
          "internalType": "address",
          "name": "from",
          "type": "address"
        },
        {
          "internalType": "address",
          "name": "to",
          "type": "address"
        },
        {
          "internalType": "uint256",
          "name": "tokenId",
          "type": "uint256"
        }
      ],
      "name": "transferFrom",
      "outputs": [],
      "stateMutability": "nonpayable",
      "type": "function"
    },
    {
      "inputs": [
        {
          "internalType": "address",
          "name": "newOwner",
          "type": "address"
        }
      ],
      "name": "transferOwnership",
      "outputs": [],
      "stateMutability": "nonpayable",
      "type": "function"
    }
  ],
  "bytecode": "0x60806040523480156200001157600080fd5b506040518060400160405280600881526020017f536f6e6172696b610000000000000000000000000000000000000000000000008152506040518060400160405280600281526020017f534b000000000000000000000000000000000000000000000000000000000000815250816000908051906020019062000096929190620001a6565b508060019080519060200190620000af929190620001a6565b505050620000d2620000c6620000d860201b60201c565b620000e060201b60201c565b620002bb565b600033905090565b6000600660009054906101000a900473ffffffffffffffffffffffffffffffffffffffff16905081600660006101000a81548173ffffffffffffffffffffffffffffffffffffffff021916908373ffffffffffffffffffffffffffffffffffffffff1602179055508173ffffffffffffffffffffffffffffffffffffffff168173ffffffffffffffffffffffffffffffffffffffff167f8be0079c531659141344cd1fd0a4f28419497f9722a3daafe3b4186f6b6457e060405160405180910390a35050565b828054620001b49062000256565b90600052602060002090601f016020900481019282620001d8576000855562000224565b82601f10620001f357805160ff191683800117855562000224565b8280016001018555821562000224579182015b828111156200022357825182559160200191906001019062000206565b5b50905062000233919062000237565b5090565b5b808211156200025257600081600090555060010162000238565b5090565b600060028204905060018216806200026f57607f821691505b602082108114156200028657620002856200028c565b5b50919050565b7f4e487b7100000000000000000000000000000000000000000000000000000000600052602260045260246000fd5b612bbd80620002cb6000396000f3fe608060405234801561001057600080fd5b506004361061010b5760003560e01c806370a08231116100a2578063a22cb46511610071578063a22cb465146102a4578063b88d4fde146102c0578063c87b56dd146102dc578063e985e9c51461030c578063f2fde38b1461033c5761010b565b806370a082311461022e578063715018a61461025e5780638da5cb5b1461026857806395d89b41146102865761010b565b806323b872dd116100de57806323b872dd146101aa57806340d097c3146101c657806342842e0e146101e25780636352211e146101fe5761010b565b806301ffc9a71461011057806306fdde0314610140578063081812fc1461015e578063095ea7b31461018e575b600080fd5b61012a60048036038101906101259190611c72565b610358565b6040516101379190612084565b60405180910390f35b61014861043a565b604051610155919061209f565b60405180910390f35b61017860048036038101906101739190611ccc565b6104cc565b604051610185919061201d565b60405180910390f35b6101a860048036038101906101a39190611c32565b610551565b005b6101c460048036038101906101bf9190611b1c565b610669565b005b6101e060048036038101906101db9190611aaf565b6106c9565b005b6101fc60048036038101906101f79190611b1c565b61076b565b005b61021860048036038101906102139190611ccc565b61078b565b604051610225919061201d565b60405180910390f35b61024860048036038101906102439190611aaf565b61083d565b60405161025591906122c1565b60405180910390f35b6102666108f5565b005b61027061097d565b60405161027d919061201d565b60405180910390f35b61028e6109a7565b60405161029b919061209f565b60405180910390f35b6102be60048036038101906102b99190611bf2565b610a39565b005b6102da60048036038101906102d59190611b6f565b610a4f565b005b6102f660048036038101906102f19190611ccc565b610ab1565b604051610303919061209f565b60405180910390f35b61032660048036038101906103219190611adc565b610b58565b6040516103339190612084565b60405180910390f35b61035660048036038101906103519190611aaf565b610bec565b005b60007f80ac58cd000000000000000000000000000000000000000000000000000000007bffffffffffffffffffffffffffffffffffffffffffffffffffffffff1916827bffffffffffffffffffffffffffffffffffffffffffffffffffffffff1916148061042357507f5b5e139f000000000000000000000000000000000000000000000000000000007bffffffffffffffffffffffffffffffffffffffffffffffffffffffff1916827bffffffffffffffffffffffffffffffffffffffffffffffffffffffff1916145b80610433575061043282610ce4565b5b9050919050565b606060008054610449906124e6565b80601f0160208091040260200160405190810160405280929190818152602001828054610475906124e6565b80156104c25780601f10610497576101008083540402835291602001916104c2565b820191906000526020600020905b8154815290600101906020018083116104a557829003601f168201915b5050505050905090565b60006104d782610d4e565b610516576040517f08c379a000000000000000000000000000000000000000000000000000000000815260040161050d90612201565b60405180910390fd5b6004600083815260200190815260200160002060009054906101000a900473ffffffffffffffffffffffffffffffffffffffff169050919050565b600061055c8261078b565b90508073ffffffffffffffffffffffffffffffffffffffff168373ffffffffffffffffffffffffffffffffffffffff1614156105cd576040517f08c379a00000000000000000000000000000000000000000000000000000000081526004016105c490612281565b60405180910390fd5b8073ffffffffffffffffffffffffffffffffffffffff166105ec610dba565b73ffffffffffffffffffffffffffffffffffffffff16148061061b575061061a81610615610dba565b610b58565b5b61065a576040517f08c379a000000000000000000000000000000000000000000000000000000000815260040161065190612181565b60405180910390fd5b6106648383610dc2565b505050565b61067a610674610dba565b82610e7b565b6106b9576040517f08c379a00000000000000000000000000000000000000000000000000000000081526004016106b0906122a1565b60405180910390fd5b6106c4838383610f59565b505050565b6106d1610dba565b73ffffffffffffffffffffffffffffffffffffffff166106ef61097d565b73ffffffffffffffffffffffffffffffffffffffff1614610745576040517f08c379a000000000000000000000000000000000000000000000000000000000815260040161073c90612221565b60405180910390fd5b600061075160076111b5565b905061075d60076111c3565b61076782826111d9565b5050565b61078683838360405180602001604052806000815250610a4f565b505050565b6000806002600084815260200190815260200160002060009054906101000a900473ffffffffffffffffffffffffffffffffffffffff169050600073ffffffffffffffffffffffffffffffffffffffff168173ffffffffffffffffffffffffffffffffffffffff161415610834576040517f08c379a000000000000000000000000000000000000000000000000000000000815260040161082b906121c1565b60405180910390fd5b80915050919050565b60008073ffffffffffffffffffffffffffffffffffffffff168273ffffffffffffffffffffffffffffffffffffffff1614156108ae576040517f08c379a00000000000000000000000000000000000000000000000000000000081526004016108a5906121a1565b60405180910390fd5b600360008373ffffffffffffffffffffffffffffffffffffffff1673ffffffffffffffffffffffffffffffffffffffff168152602001908152602001600020549050919050565b6108fd610dba565b73ffffffffffffffffffffffffffffffffffffffff1661091b61097d565b73ffffffffffffffffffffffffffffffffffffffff1614610971576040517f08c379a000000000000000000000000000000000000000000000000000000000815260040161096890612221565b60405180910390fd5b61097b60006111f7565b565b6000600660009054906101000a900473ffffffffffffffffffffffffffffffffffffffff16905090565b6060600180546109b6906124e6565b80601f01602080910402602001604051908101604052809291908181526020018280546109e2906124e6565b8015610a2f5780601f10610a0457610100808354040283529160200191610a2f565b820191906000526020600020905b815481529060010190602001808311610a1257829003601f168201915b5050505050905090565b610a4b610a44610dba565b83836112bd565b5050565b610a60610a5a610dba565b83610e7b565b610a9f576040517f08c379a0000000000000000000000000000000000000000000000000000000008152600401610a96906122a1565b60405180910390fd5b610aab8484848461142a565b50505050565b6060610abc82610d4e565b610afb576040517f08c379a0000000000000000000000000000000000000000000000000000000008152600401610af290612261565b60405180910390fd5b6000610b05611486565b90506000815111610b255760405180602001604052806000815250610b50565b80610b2f8461149d565b604051602001610b40929190611ff9565b6040516020818303038152906040525b915050919050565b6000600560008473ffffffffffffffffffffffffffffffffffffffff1673ffffffffffffffffffffffffffffffffffffffff16815260200190815260200160002060008373ffffffffffffffffffffffffffffffffffffffff1673ffffffffffffffffffffffffffffffffffffffff16815260200190815260200160002060009054906101000a900460ff16905092915050565b610bf4610dba565b73ffffffffffffffffffffffffffffffffffffffff16610c1261097d565b73ffffffffffffffffffffffffffffffffffffffff1614610c68576040517f08c379a0000000000000000000000000000000000000000000000000000000008152600401610c5f90612221565b60405180910390fd5b600073ffffffffffffffffffffffffffffffffffffffff168173ffffffffffffffffffffffffffffffffffffffff161415610cd8576040517f08c379a0000000000000000000000000000000000000000000000000000000008152600401610ccf906120e1565b60405180910390fd5b610ce1816111f7565b50565b60007f01ffc9a7000000000000000000000000000000000000000000000000000000007bffffffffffffffffffffffffffffffffffffffffffffffffffffffff1916827bffffffffffffffffffffffffffffffffffffffffffffffffffffffff1916149050919050565b60008073ffffffffffffffffffffffffffffffffffffffff166002600084815260200190815260200160002060009054906101000a900473ffffffffffffffffffffffffffffffffffffffff1673ffffffffffffffffffffffffffffffffffffffff1614159050919050565b600033905090565b816004600083815260200190815260200160002060006101000a81548173ffffffffffffffffffffffffffffffffffffffff021916908373ffffffffffffffffffffffffffffffffffffffff160217905550808273ffffffffffffffffffffffffffffffffffffffff16610e358361078b565b73ffffffffffffffffffffffffffffffffffffffff167f8c5be1e5ebec7d5bd14f71427d1e84f3dd0314c0f7b2291e5b200ac8c7c3b92560405160405180910390a45050565b6000610e8682610d4e565b610ec5576040517f08c379a0000000000000000000000000000000000000000000000000000000008152600401610ebc90612161565b60405180910390fd5b6000610ed08361078b565b90508073ffffffffffffffffffffffffffffffffffffffff168473ffffffffffffffffffffffffffffffffffffffff161480610f3f57508373ffffffffffffffffffffffffffffffffffffffff16610f27846104cc565b73ffffffffffffffffffffffffffffffffffffffff16145b80610f505750610f4f8185610b58565b5b91505092915050565b8273ffffffffffffffffffffffffffffffffffffffff16610f798261078b565b73ffffffffffffffffffffffffffffffffffffffff1614610fcf576040517f08c379a0000000000000000000000000000000000000000000000000000000008152600401610fc690612241565b60405180910390fd5b600073ffffffffffffffffffffffffffffffffffffffff168273ffffffffffffffffffffffffffffffffffffffff16141561103f576040517f08c379a000000000000000000000000000000000000000000000000000000000815260040161103690612121565b60405180910390fd5b61104a8383836115fe565b611055600082610dc2565b6001600360008573ffffffffffffffffffffffffffffffffffffffff1673ffffffffffffffffffffffffffffffffffffffff16815260200190815260200160002060008282546110a591906123fc565b925050819055506001600360008473ffffffffffffffffffffffffffffffffffffffff1673ffffffffffffffffffffffffffffffffffffffff16815260200190815260200160002060008282546110fc9190612375565b92505081905550816002600083815260200190815260200160002060006101000a81548173ffffffffffffffffffffffffffffffffffffffff021916908373ffffffffffffffffffffffffffffffffffffffff160217905550808273ffffffffffffffffffffffffffffffffffffffff168473ffffffffffffffffffffffffffffffffffffffff167fddf252ad1be2c89b69c2b068fc378daa952ba7f163c4a11628f55a4df523b3ef60405160405180910390a4505050565b600081600001549050919050565b6001816000016000828254019250508190555050565b6111f3828260405180602001604052806000815250611603565b5050565b6000600660009054906101000a900473ffffffffffffffffffffffffffffffffffffffff16905081600660006101000a81548173ffffffffffffffffffffffffffffffffffffffff021916908373ffffffffffffffffffffffffffffffffffffffff1602179055508173ffffffffffffffffffffffffffffffffffffffff168173ffffffffffffffffffffffffffffffffffffffff167f8be0079c531659141344cd1fd0a4f28419497f9722a3daafe3b4186f6b6457e060405160405180910390a35050565b8173ffffffffffffffffffffffffffffffffffffffff168373ffffffffffffffffffffffffffffffffffffffff16141561132c576040517f08c379a000000000000000000000000000000000000000000000000000000000815260040161132390612141565b60405180910390fd5b80600560008573ffffffffffffffffffffffffffffffffffffffff1673ffffffffffffffffffffffffffffffffffffffff16815260200190815260200160002060008473ffffffffffffffffffffffffffffffffffffffff1673ffffffffffffffffffffffffffffffffffffffff16815260200190815260200160002060006101000a81548160ff0219169083151502179055508173ffffffffffffffffffffffffffffffffffffffff168373ffffffffffffffffffffffffffffffffffffffff167f17307eab39ab6107e8899845ad3d59bd9653f200f220920489ca2b5937696c318360405161141d9190612084565b60405180910390a3505050565b611435848484610f59565b6114418484848461165e565b611480576040517f08c379a0000000000000000000000000000000000000000000000000000000008152600401611477906120c1565b60405180910390fd5b50505050565b606060405180602001604052806000815250905090565b606060008214156114e5576040518060400160405280600181526020017f300000000000000000000000000000000000000000000000000000000000000081525090506115f9565b600082905060005b6000821461151757808061150090612549565b915050600a8261151091906123cb565b91506114ed565b60008167ffffffffffffffff8111156115335761153261267f565b5b6040519080825280601f01601f1916602001820160405280156115655781602001600182028036833780820191505090505b5090505b600085146115f25760018261157e91906123fc565b9150600a8561158d9190612592565b60306115999190612375565b60f81b8183815181106115af576115ae612650565b5b60200101907effffffffffffffffffffffffffffffffffffffffffffffffffffffffffffff1916908160001a905350600a856115eb91906123cb565b9450611569565b8093505050505b919050565b505050565b61160d83836117f5565b61161a600084848461165e565b611659576040517f08c379a0000000000000000000000000000000000000000000000000000000008152600401611650906120c1565b60405180910390fd5b505050565b600061167f8473ffffffffffffffffffffffffffffffffffffffff166119c3565b156117e8578373ffffffffffffffffffffffffffffffffffffffff1663150b7a026116a8610dba565b8786866040518563ffffffff1660e01b81526004016116ca9493929190612038565b602060405180830381600087803b1580156116e457600080fd5b505af192505050801561171557506040513d601f19601f820116820180604052508101906117129190611c9f565b60015b611798573d8060008114611745576040519150601f19603f3d011682016040523d82523d6000602084013e61174a565b606091505b50600081511415611790576040517f08c379a0000000000000000000000000000000000000000000000000000000008152600401611787906120c1565b60405180910390fd5b805181602001fd5b63150b7a0260e01b7bffffffffffffffffffffffffffffffffffffffffffffffffffffffff1916817bffffffffffffffffffffffffffffffffffffffffffffffffffffffff1916149150506117ed565b600190505b949350505050565b600073ffffffffffffffffffffffffffffffffffffffff168273ffffffffffffffffffffffffffffffffffffffff161415611865576040517f08c379a000000000000000000000000000000000000000000000000000000000815260040161185c906121e1565b60405180910390fd5b61186e81610d4e565b156118ae576040517f08c379a00000000000000000000000000000000000000000000000000000000081526004016118a590612101565b60405180910390fd5b6118ba600083836115fe565b6001600360008473ffffffffffffffffffffffffffffffffffffffff1673ffffffffffffffffffffffffffffffffffffffff168152602001908152602001600020600082825461190a9190612375565b92505081905550816002600083815260200190815260200160002060006101000a81548173ffffffffffffffffffffffffffffffffffffffff021916908373ffffffffffffffffffffffffffffffffffffffff160217905550808273ffffffffffffffffffffffffffffffffffffffff16600073ffffffffffffffffffffffffffffffffffffffff167fddf252ad1be2c89b69c2b068fc378daa952ba7f163c4a11628f55a4df523b3ef60405160405180910390a45050565b600080823b905060008111915050919050565b60006119e96119e484612301565b6122dc565b905082815260208101848484011115611a0557611a046126b3565b5b611a108482856124a4565b509392505050565b600081359050611a2781612b2b565b92915050565b600081359050611a3c81612b42565b92915050565b600081359050611a5181612b59565b92915050565b600081519050611a6681612b59565b92915050565b600082601f830112611a8157611a806126ae565b5b8135611a918482602086016119d6565b91505092915050565b600081359050611aa981612b70565b92915050565b600060208284031215611ac557611ac46126bd565b5b6000611ad384828501611a18565b91505092915050565b60008060408385031215611af357611af26126bd565b5b6000611b0185828601611a18565b9250506020611b1285828601611a18565b9150509250929050565b600080600060608486031215611b3557611b346126bd565b5b6000611b4386828701611a18565b9350506020611b5486828701611a18565b9250506040611b6586828701611a9a565b9150509250925092565b60008060008060808587031215611b8957611b886126bd565b5b6000611b9787828801611a18565b9450506020611ba887828801611a18565b9350506040611bb987828801611a9a565b925050606085013567ffffffffffffffff811115611bda57611bd96126b8565b5b611be687828801611a6c565b91505092959194509250565b60008060408385031215611c0957611c086126bd565b5b6000611c1785828601611a18565b9250506020611c2885828601611a2d565b9150509250929050565b60008060408385031215611c4957611c486126bd565b5b6000611c5785828601611a18565b9250506020611c6885828601611a9a565b9150509250929050565b600060208284031215611c8857611c876126bd565b5b6000611c9684828501611a42565b91505092915050565b600060208284031215611cb557611cb46126bd565b5b6000611cc384828501611a57565b91505092915050565b600060208284031215611ce257611ce16126bd565b5b6000611cf084828501611a9a565b91505092915050565b611d0281612430565b82525050565b611d1181612442565b82525050565b6000611d2282612332565b611d2c8185612348565b9350611d3c8185602086016124b3565b611d45816126c2565b840191505092915050565b6000611d5b8261233d565b611d658185612359565b9350611d758185602086016124b3565b611d7e816126c2565b840191505092915050565b6000611d948261233d565b611d9e818561236a565b9350611dae8185602086016124b3565b80840191505092915050565b6000611dc7603283612359565b9150611dd2826126d3565b604082019050919050565b6000611dea602683612359565b9150611df582612722565b604082019050919050565b6000611e0d601c83612359565b9150611e1882612771565b602082019050919050565b6000611e30602483612359565b9150611e3b8261279a565b604082019050919050565b6000611e53601983612359565b9150611e5e826127e9565b602082019050919050565b6000611e76602c83612359565b9150611e8182612812565b604082019050919050565b6000611e99603883612359565b9150611ea482612861565b604082019050919050565b6000611ebc602a83612359565b9150611ec7826128b0565b604082019050919050565b6000611edf602983612359565b9150611eea826128ff565b604082019050919050565b6000611f02602083612359565b9150611f0d8261294e565b602082019050919050565b6000611f25602c83612359565b9150611f3082612977565b604082019050919050565b6000611f48602083612359565b9150611f53826129c6565b602082019050919050565b6000611f6b602983612359565b9150611f76826129ef565b604082019050919050565b6000611f8e602f83612359565b9150611f9982612a3e565b604082019050919050565b6000611fb1602183612359565b9150611fbc82612a8d565b604082019050919050565b6000611fd4603183612359565b9150611fdf82612adc565b604082019050919050565b611ff38161249a565b82525050565b60006120058285611d89565b91506120118284611d89565b91508190509392505050565b60006020820190506120326000830184611cf9565b92915050565b600060808201905061204d6000830187611cf9565b61205a6020830186611cf9565b6120676040830185611fea565b81810360608301526120798184611d17565b905095945050505050565b60006020820190506120996000830184611d08565b92915050565b600060208201905081810360008301526120b98184611d50565b905092915050565b600060208201905081810360008301526120da81611dba565b9050919050565b600060208201905081810360008301526120fa81611ddd565b9050919050565b6000602082019050818103600083015261211a81611e00565b9050919050565b6000602082019050818103600083015261213a81611e23565b9050919050565b6000602082019050818103600083015261215a81611e46565b9050919050565b6000602082019050818103600083015261217a81611e69565b9050919050565b6000602082019050818103600083015261219a81611e8c565b9050919050565b600060208201905081810360008301526121ba81611eaf565b9050919050565b600060208201905081810360008301526121da81611ed2565b9050919050565b600060208201905081810360008301526121fa81611ef5565b9050919050565b6000602082019050818103600083015261221a81611f18565b9050919050565b6000602082019050818103600083015261223a81611f3b565b9050919050565b6000602082019050818103600083015261225a81611f5e565b9050919050565b6000602082019050818103600083015261227a81611f81565b9050919050565b6000602082019050818103600083015261229a81611fa4565b9050919050565b600060208201905081810360008301526122ba81611fc7565b9050919050565b60006020820190506122d66000830184611fea565b92915050565b60006122e66122f7565b90506122f28282612518565b919050565b6000604051905090565b600067ffffffffffffffff82111561231c5761231b61267f565b5b612325826126c2565b9050602081019050919050565b600081519050919050565b600081519050919050565b600082825260208201905092915050565b600082825260208201905092915050565b600081905092915050565b60006123808261249a565b915061238b8361249a565b9250827fffffffffffffffffffffffffffffffffffffffffffffffffffffffffffffffff038211156123c0576123bf6125c3565b5b828201905092915050565b60006123d68261249a565b91506123e18361249a565b9250826123f1576123f06125f2565b5b828204905092915050565b60006124078261249a565b91506124128361249a565b925082821015612425576124246125c3565b5b828203905092915050565b600061243b8261247a565b9050919050565b60008115159050919050565b60007fffffffff0000000000000000000000000000000000000000000000000000000082169050919050565b600073ffffffffffffffffffffffffffffffffffffffff82169050919050565b6000819050919050565b82818337600083830152505050565b60005b838110156124d15780820151818401526020810190506124b6565b838111156124e0576000848401525b50505050565b600060028204905060018216806124fe57607f821691505b6020821081141561251257612511612621565b5b50919050565b612521826126c2565b810181811067ffffffffffffffff821117156125405761253f61267f565b5b80604052505050565b60006125548261249a565b91507fffffffffffffffffffffffffffffffffffffffffffffffffffffffffffffffff821415612587576125866125c3565b5b600182019050919050565b600061259d8261249a565b91506125a88361249a565b9250826125b8576125b76125f2565b5b828206905092915050565b7f4e487b7100000000000000000000000000000000000000000000000000000000600052601160045260246000fd5b7f4e487b7100000000000000000000000000000000000000000000000000000000600052601260045260246000fd5b7f4e487b7100000000000000000000000000000000000000000000000000000000600052602260045260246000fd5b7f4e487b7100000000000000000000000000000000000000000000000000000000600052603260045260246000fd5b7f4e487b7100000000000000000000000000000000000000000000000000000000600052604160045260246000fd5b600080fd5b600080fd5b600080fd5b600080fd5b6000601f19601f8301169050919050565b7f4552433732313a207472616e7366657220746f206e6f6e20455243373231526560008201527f63656976657220696d706c656d656e7465720000000000000000000000000000602082015250565b7f4f776e61626c653a206e6577206f776e657220697320746865207a65726f206160008201527f6464726573730000000000000000000000000000000000000000000000000000602082015250565b7f4552433732313a20746f6b656e20616c7265616479206d696e74656400000000600082015250565b7f4552433732313a207472616e7366657220746f20746865207a65726f2061646460008201527f7265737300000000000000000000000000000000000000000000000000000000602082015250565b7f4552433732313a20617070726f766520746f2063616c6c657200000000000000600082015250565b7f4552433732313a206f70657261746f7220717565727920666f72206e6f6e657860008201527f697374656e7420746f6b656e0000000000000000000000000000000000000000602082015250565b7f4552433732313a20617070726f76652063616c6c6572206973206e6f74206f7760008201527f6e6572206e6f7220617070726f76656420666f7220616c6c0000000000000000602082015250565b7f4552433732313a2062616c616e636520717565727920666f7220746865207a6560008201527f726f206164647265737300000000000000000000000000000000000000000000602082015250565b7f4552433732313a206f776e657220717565727920666f72206e6f6e657869737460008201527f656e7420746f6b656e0000000000000000000000000000000000000000000000602082015250565b7f4552433732313a206d696e7420746f20746865207a65726f2061646472657373600082015250565b7f4552433732313a20617070726f76656420717565727920666f72206e6f6e657860008201527f697374656e7420746f6b656e0000000000000000000000000000000000000000602082015250565b7f4f776e61626c653a2063616c6c6572206973206e6f7420746865206f776e6572600082015250565b7f4552433732313a207472616e73666572206f6620746f6b656e2074686174206960008201527f73206e6f74206f776e0000000000000000000000000000000000000000000000602082015250565b7f4552433732314d657461646174613a2055524920717565727920666f72206e6f60008201527f6e6578697374656e7420746f6b656e0000000000000000000000000000000000602082015250565b7f4552433732313a20617070726f76616c20746f2063757272656e74206f776e6560008201527f7200000000000000000000000000000000000000000000000000000000000000602082015250565b7f4552433732313a207472616e736665722063616c6c6572206973206e6f74206f60008201527f776e6572206e6f7220617070726f766564000000000000000000000000000000602082015250565b612b3481612430565b8114612b3f57600080fd5b50565b612b4b81612442565b8114612b5657600080fd5b50565b612b628161244e565b8114612b6d57600080fd5b50565b612b798161249a565b8114612b8457600080fd5b5056fea2646970667358221220efaa9b5db5d0fdcc319b61b931641b59a6f4756d2aa53387f614592307fa62d364736f6c63430008070033",
  "linkReferences": {},
  "deployedLinkReferences": {}
}