{
  "_format": "hh-sol-artifact-1",
  "contractName": "MultiSenderV2",
  "sourceName": "contracts/multisender/MultiSenderV2.sol",
  "abi": [
    {
      "inputs": [
        {
          "internalType": "address",
          "name": "_tokenAddress",
          "type": "address"
        },
        {
          "internalType": "address[]",
          "name": "_recipients",
          "type": "address[]"
        },
        {
          "internalType": "uint256[]",
          "name": "_tokenIds",
          "type": "uint256[]"
        },
        {
          "internalType": "uint256[]",
          "name": "_amounts",
          "type": "uint256[]"
        }
      ],
      "name": "transferERC1155",
      "outputs": [],
      "stateMutability": "nonpayable",
      "type": "function"
    },
    {
      "inputs": [
        {
          "internalType": "address",
          "name": "_tokenAddress",
          "type": "address"
        },
        {
          "internalType": "address[]",
          "name": "_recipients",
          "type": "address[]"
        },
        {
          "internalType": "uint256[]",
          "name": "_amounts",
          "type": "uint256[]"
        }
      ],
      "name": "transferERC20",
      "outputs": [],
      "stateMutability": "nonpayable",
      "type": "function"
    },
    {
      "inputs": [
        {
          "internalType": "address",
          "name": "_tokenAddress",
          "type": "address"
        },
        {
          "internalType": "address[]",
          "name": "_recipients",
          "type": "address[]"
        },
        {
          "internalType": "uint256[]",
          "name": "_tokenIds",
          "type": "uint256[]"
        }
      ],
      "name": "transferERC721",
      "outputs": [],
      "stateMutability": "nonpayable",
      "type": "function"
    },
    {
      "inputs": [
        {
          "internalType": "address[]",
          "name": "_recipients",
          "type": "address[]"
        },
        {
          "internalType": "uint256[]",
          "name": "_amounts",
          "type": "uint256[]"
        }
      ],
      "name": "transferETH",
      "outputs": [],
      "stateMutability": "payable",
      "type": "function"
    }
  ],
  "bytecode": "0x608060405234801561001057600080fd5b50610e7b806100206000396000f3fe60806040526004361061003f5760003560e01c80635fbfd3ec14610044578063a11fde371461006d578063dd059c4114610089578063fa558b71146100b2575b600080fd5b34801561005057600080fd5b5061006b600480360381019061006691906107fa565b6100db565b005b610087600480360381019061008291906108b5565b610248565b005b34801561009557600080fd5b506100b060048036038101906100ab919061076f565b6103bb565b005b3480156100be57600080fd5b506100d960048036038101906100d4919061076f565b6104c7565b005b815183511461011f576040517f08c379a000000000000000000000000000000000000000000000000000000000815260040161011690610ad3565b60405180910390fd5b8051835114610163576040517f08c379a000000000000000000000000000000000000000000000000000000000815260040161015a90610a93565b60405180910390fd5b60005b8351811015610241578473ffffffffffffffffffffffffffffffffffffffff1663f242432a3386848151811061019f5761019e610cd9565b5b60200260200101518685815181106101ba576101b9610cd9565b5b60200260200101518686815181106101d5576101d4610cd9565b5b60200260200101516040518563ffffffff1660e01b81526004016101fc9493929190610a3b565b600060405180830381600087803b15801561021657600080fd5b505af115801561022a573d6000803e3d6000fd5b50505050808061023990610c61565b915050610166565b5050505050565b805182511461028c576040517f08c379a000000000000000000000000000000000000000000000000000000000815260040161028390610a93565b60405180910390fd5b600080600090505b82518110156102d8578281815181106102b0576102af610cd9565b5b6020026020010151826102c39190610b92565b915080806102d090610c61565b915050610294565b5080341461031b576040517f08c379a000000000000000000000000000000000000000000000000000000000815260040161031290610ab3565b60405180910390fd5b60005b83518110156103b55783818151811061033a57610339610cd9565b5b602002602001015173ffffffffffffffffffffffffffffffffffffffff166108fc84838151811061036e5761036d610cd9565b5b60200260200101519081150290604051600060405180830381858888f193505050501580156103a1573d6000803e3d6000fd5b5080806103ad90610c61565b91505061031e565b50505050565b80518251146103ff576040517f08c379a00000000000000000000000000000000000000000000000000000000081526004016103f690610ad3565b60405180910390fd5b60005b82518110156104c1578373ffffffffffffffffffffffffffffffffffffffff166342842e0e3385848151811061043b5761043a610cd9565b5b602002602001015185858151811061045657610455610cd9565b5b60200260200101516040518463ffffffff1660e01b815260040161047c93929190610a04565b600060405180830381600087803b15801561049657600080fd5b505af11580156104aa573d6000803e3d6000fd5b5050505080806104b990610c61565b915050610402565b50505050565b805182511461050b576040517f08c379a000000000000000000000000000000000000000000000000000000000815260040161050290610a93565b60405180910390fd5b60005b82518110156105ee578373ffffffffffffffffffffffffffffffffffffffff166323b872dd3385848151811061054757610546610cd9565b5b602002602001015185858151811061056257610561610cd9565b5b60200260200101516040518463ffffffff1660e01b815260040161058893929190610a04565b602060405180830381600087803b1580156105a257600080fd5b505af11580156105b6573d6000803e3d6000fd5b505050506040513d601f19601f820116820180604052508101906105da919061092d565b5080806105e690610c61565b91505061050e565b50505050565b600061060761060284610b18565b610af3565b9050808382526020820190508285602086028201111561062a57610629610d3c565b5b60005b8581101561065a578161064088826106d4565b84526020840193506020830192505060018101905061062d565b5050509392505050565b600061067761067284610b44565b610af3565b9050808382526020820190508285602086028201111561069a57610699610d3c565b5b60005b858110156106ca57816106b0888261075a565b84526020840193506020830192505060018101905061069d565b5050509392505050565b6000813590506106e381610e00565b92915050565b600082601f8301126106fe576106fd610d37565b5b813561070e8482602086016105f4565b91505092915050565b600082601f83011261072c5761072b610d37565b5b813561073c848260208601610664565b91505092915050565b60008151905061075481610e17565b92915050565b60008135905061076981610e2e565b92915050565b60008060006060848603121561078857610787610d46565b5b6000610796868287016106d4565b935050602084013567ffffffffffffffff8111156107b7576107b6610d41565b5b6107c3868287016106e9565b925050604084013567ffffffffffffffff8111156107e4576107e3610d41565b5b6107f086828701610717565b9150509250925092565b6000806000806080858703121561081457610813610d46565b5b6000610822878288016106d4565b945050602085013567ffffffffffffffff81111561084357610842610d41565b5b61084f878288016106e9565b935050604085013567ffffffffffffffff8111156108705761086f610d41565b5b61087c87828801610717565b925050606085013567ffffffffffffffff81111561089d5761089c610d41565b5b6108a987828801610717565b91505092959194509250565b600080604083850312156108cc576108cb610d46565b5b600083013567ffffffffffffffff8111156108ea576108e9610d41565b5b6108f6858286016106e9565b925050602083013567ffffffffffffffff81111561091757610916610d41565b5b61092385828601610717565b9150509250929050565b60006020828403121561094357610942610d46565b5b600061095184828501610745565b91505092915050565b61096381610be8565b82525050565b6000610976600283610b81565b915061098182610d5c565b602082019050919050565b6000610999600283610b70565b91506109a482610d85565b602082019050919050565b60006109bc600283610b81565b91506109c782610dae565b602082019050919050565b60006109df600283610b81565b91506109ea82610dd7565b602082019050919050565b6109fe81610c26565b82525050565b6000606082019050610a19600083018661095a565b610a26602083018561095a565b610a3360408301846109f5565b949350505050565b600060a082019050610a50600083018761095a565b610a5d602083018661095a565b610a6a60408301856109f5565b610a7760608301846109f5565b8181036080830152610a888161098c565b905095945050505050565b60006020820190508181036000830152610aac81610969565b9050919050565b60006020820190508181036000830152610acc816109af565b9050919050565b60006020820190508181036000830152610aec816109d2565b9050919050565b6000610afd610b0e565b9050610b098282610c30565b919050565b6000604051905090565b600067ffffffffffffffff821115610b3357610b32610d08565b5b602082029050602081019050919050565b600067ffffffffffffffff821115610b5f57610b5e610d08565b5b602082029050602081019050919050565b600082825260208201905092915050565b600082825260208201905092915050565b6000610b9d82610c26565b9150610ba883610c26565b9250827fffffffffffffffffffffffffffffffffffffffffffffffffffffffffffffffff03821115610bdd57610bdc610caa565b5b828201905092915050565b6000610bf382610c06565b9050919050565b60008115159050919050565b600073ffffffffffffffffffffffffffffffffffffffff82169050919050565b6000819050919050565b610c3982610d4b565b810181811067ffffffffffffffff82111715610c5857610c57610d08565b5b80604052505050565b6000610c6c82610c26565b91507fffffffffffffffffffffffffffffffffffffffffffffffffffffffffffffffff821415610c9f57610c9e610caa565b5b600182019050919050565b7f4e487b7100000000000000000000000000000000000000000000000000000000600052601160045260246000fd5b7f4e487b7100000000000000000000000000000000000000000000000000000000600052603260045260246000fd5b7f4e487b7100000000000000000000000000000000000000000000000000000000600052604160045260246000fd5b600080fd5b600080fd5b600080fd5b600080fd5b6000601f19601f8301169050919050565b7f3031000000000000000000000000000000000000000000000000000000000000600082015250565b7f3078000000000000000000000000000000000000000000000000000000000000600082015250565b7f3033000000000000000000000000000000000000000000000000000000000000600082015250565b7f3032000000000000000000000000000000000000000000000000000000000000600082015250565b610e0981610be8565b8114610e1457600080fd5b50565b610e2081610bfa565b8114610e2b57600080fd5b50565b610e3781610c26565b8114610e4257600080fd5b5056fea2646970667358221220f4a5bc07882d7ca8e0c71e974351822945aa33098d58b7302040137b66ac141e64736f6c63430008070033",
  "linkReferences": {},
  "deployedLinkReferences": {}
}